:020000040000fa
:080000000002040000000000f2
:020000040000fa
:04000800d002000022
:020000040000fa
:04000c00d00200001e
:020000040000fa
:04001000d00200001a
:020000040000fa
:04001400d002000016
:020000040000fa
:04001800d002000012
:020000040000fa
:04001c00d00200000e
:020000040000fa
:04002000d00200000a
:020000040000fa
:04002400d002000006
:020000040000fa
:04002800d002000002
:020000040000fa
:04002c00d0020000fe
:020000040000fa
:04003000d0020000fa
:020000040000fa
:04003400d0020000f6
:020000040000fa
:04003800d0020000f2
:020000040000fa
:04003c00d0020000ee
:020000040000fa
:04004000d0020000ea
:020000040000fa
:04004400d0020000e6
:020000040000fa
:04004800d0020000e2
:020000040000fa
:04004c00d0020000de
:020000040000fa
:04005000d0020000da
:020000040000fa
:04005400d0020000d6
:020000040000fa
:04005800d0020000d2
:020000040000fa
:04005c00d0020000ce
:020000040000fa
:04006000d0020000ca
:020000040000fa
:04006400d0020000c6
:020000040000fa
:04006800d0020000c2
:020000040000fa
:04006c00d0020000be
:020000040000fa
:04007000d0020000ba
:020000040000fa
:04007400d0020000b6
:020000040000fa
:04007800d0020000b2
:020000040000fa
:04007c00d0020000ae
:020000040000fa
:04008000d0020000aa
:020000040000fa
:04008400d0020000a6
:020000040000fa
:04008800d0020000a2
:020000040000fa
:04008c00d00200009e
:020000040000fa
:04009000d00200009a
:020000040000fa
:04009400d002000096
:020000040000fa
:04009800d002000092
:020000040000fa
:04009c00d00200008e
:020000040000fa
:0400a000d00200008a
:020000040000fa
:0400a400d002000086
:020000040000fa
:0400a800d002000082
:020000040000fa
:0400ac00d00200007e
:020000040000fa
:0400b000d00200007a
:020000040000fa
:0400b400d002000076
:020000040000fa
:0400b800d002000072
:020000040000fa
:0400bc00d00200006e
:020000040000fa
:0400c000d00200006a
:020000040000fa
:0400c400d002000066
:020000040000fa
:0400c800d002000062
:020000040000fa
:0400cc00d00200005e
:020000040000fa
:0400d000d00200005a
:020000040000fa
:0400d400d002000056
:020000040000fa
:0400d800d002000052
:020000040000fa
:0400dc00d00200004e
:020000040000fa
:0400e000d00200004a
:020000040000fa
:0400e400d002000046
:020000040000fa
:0400e800d002000042
:020000040000fa
:0400ec00d00200003e
:020000040000fa
:0400f000d00200003a
:020000040000fa
:0400f400d002000036
:020000040000fa
:0400f800d002000032
:020000040000fa
:0400fc00d00200002e
:020000040000fa
:04010000d002000029
:020000040000fa
:04010400d002000025
:020000040000fa
:04010800d002000021
:020000040000fa
:04010c00d00200001d
:020000040000fa
:04011000d002000019
:020000040000fa
:04011400d002000015
:020000040000fa
:04011800d002000011
:020000040000fa
:04011c00d00200000d
:020000040000fa
:04012000d002000009
:020000040000fa
:04012400d002000005
:020000040000fa
:04012800d002000001
:020000040000fa
:04012c00d0020000fd
:020000040000fa
:04013000d0020000f9
:020000040000fa
:04013400d0020000f5
:020000040000fa
:04013800d0020000f1
:020000040000fa
:04013c00d0020000ed
:020000040000fa
:04014000d0020000e9
:020000040000fa
:04014400d0020000e5
:020000040000fa
:04014800d0020000e1
:020000040000fa
:04014c00d0020000dd
:020000040000fa
:04015000d0020000d9
:020000040000fa
:04015400d0020000d5
:020000040000fa
:04015800d0020000d1
:020000040000fa
:04015c00d0020000cd
:020000040000fa
:04016000d0020000c9
:020000040000fa
:04016400d0020000c5
:020000040000fa
:04020800d002000020
:020000040000fa
:04020c00d00200001c
:020000040000fa
:04021000d002000018
:020000040000fa
:04021400d002000014
:020000040000fa
:04021800d002000010
:020000040000fa
:04021c00d00200000c
:020000040000fa
:04022000d002000008
:020000040000fa
:04022400d002000004
:020000040000fa
:04022800d002000000
:020000040000fa
:04022c00d0020000fc
:020000040000fa
:04023000d0020000f8
:020000040000fa
:04023400d0020000f4
:020000040000fa
:04023800d0020000f0
:020000040000fa
:04023c00d0020000ec
:020000040000fa
:04024000d0020000e8
:020000040000fa
:04024400d0020000e4
:020000040000fa
:04024800d0020000e0
:020000040000fa
:04024c00d0020000dc
:020000040000fa
:04025000d0020000d8
:020000040000fa
:04025400d0020000d4
:020000040000fa
:04025800d0020000d0
:020000040000fa
:04025c00d0020000cc
:020000040000fa
:04026000d0020000c8
:020000040000fa
:04026400d0020000c4
:020000040000fa
:04026800d0020000c0
:020000040000fa
:04026c00d0020000bc
:020000040000fa
:04027000d0020000b8
:020000040000fa
:04027400d0020000b4
:020000040000fa
:04027800d0020000b0
:020000040000fa
:04027c00d0020000ac
:020000040000fa
:04028000d0020000a8
:020000040000fa
:04028400d0020000a4
:020000040000fa
:04028800d0020000a0
:020000040000fa
:04028c00d00200009c
:020000040000fa
:04029000d002000098
:020000040000fa
:04029400d002000094
:020000040000fa
:04029800d002000090
:020000040000fa
:04029c00d00200008c
:020000040000fa
:0402a000d002000088
:020000040000fa
:0402a400d002000084
:020000040000fa
:0402a800d002000080
:020000040000fa
:0402ac00d00200007c
:020000040000fa
:0402b000d002000078
:020000040000fa
:0402b400d002000074
:020000040000fa
:0402b800d002000070
:020000040000fa
:0402bc00d00200006c
:020000040000fa
:0402c000d002000068
:020000040000fa
:0402c400d002000064
:020000040000fa
:0402c800d002000060
:020000040000fa
:0402cc00d00200005c
:020000040000fa
:0402d000d002000058
:020000040000fa
:0402d400d002000054
:020000040000fa
:0402d800d002000050
:020000040000fa
:0402dc00d00200004c
:020000040000fa
:0402e000d002000048
:020000040000fa
:0402e400d002000044
:020000040000fa
:0402e800d002000040
:020000040000fa
:0402ec00d00200003c
:020000040000fa
:0402f000d002000038
:020000040000fa
:0402f400d002000034
:020000040000fa
:0402f800d002000030
:020000040000fa
:0402fc00d00200002c
:020000040000fa
:04030000d002000027
:020000040000fa
:04030400d002000023
:020000040000fa
:04030800d00200001f
:020000040000fa
:04030c00d00200001b
:020000040000fa
:04031000d002000017
:020000040000fa
:04031400d002000013
:020000040000fa
:04031800d00200000f
:020000040000fa
:04031c00d00200000b
:020000040000fa
:04032000d002000007
:020000040000fa
:04032400d002000003
:020000040000fa
:04032800d0020000ff
:020000040000fa
:04032c00d0020000fb
:020000040000fa
:04033000d0020000f7
:020000040000fa
:04033400d0020000f3
:020000040000fa
:04033800d0020000ef
:020000040000fa
:04033c00d0020000eb
:020000040000fa
:04034000d0020000e7
:020000040000fa
:04034400d0020000e3
:020000040000fa
:04034800d0020000df
:020000040000fa
:04034c00d0020000db
:020000040000fa
:04035000d0020000d7
:020000040000fa
:04035400d0020000d3
:020000040000fa
:04035800d0020000cf
:020000040000fa
:04035c00d0020000cb
:020000040000fa
:04036000d0020000c7
:020000040000fa
:04036400d0020000c3
:020000040000fa
:100400000f8f20000e7f24000e01880000000000e6
:10041000000020000000e000020032000001200087
:100420002002880014000700d40007000000e0004c
:1004300003003a00403b2100010020000200370089
:100440000000200001002000810f70000100320038
:1004500014000700000020000000e000020032004d
:100460000000020000000000920b020000000000eb
:100470000040da000000fe004440a900c003200054
:100480000000e0000300320000002000a00188000e
:100490004440a800000006008a1f78008b1f7800e7
:1004a0000000060091018800800478000000eb0045
:1004b0001a003700e284440032a0b4009905ba0063
:1004c000e284440032a0b4009906ba00e2844400f9
:1004d00032a0b4000006eb00476fde00fd07b2005b
:1004e000636ce10003003a00ebff07000000eb0043
:1004f0000a003700606ce10004003a00005deb0088
:100500008b05e900fdff3e00040037006168e10053
:10051000010032000086eb000b00070019c7ba008b
:100520001905ba000e04e00003003a000a00e000da
:10053000e0ff3a0000000600fe07b2009e018800be
:100540008a047800f5ff3700395dba008b05e900b1
:100550000c003200295dba008b05e900080032006a
:100560000c00e00003003a00e284440032a0b40032
:10057000f5ff370019ddba008b05e900faff3a00f4
:100580008904e800e184440032a0b40000000600c1
:10059000d409040000000000000004000000000076
:1005a0000040da000000fe000a00fa0011002000fe
:1005b000b1bf9f00c0bf9f006a8057002f04070093
:1005c0004fb897000080fa00000006000a00fa0009
:1005d000e20f500034003e0060478000e10f500001
:1005e00003003200e20f500011003a000c00370007
:1005f000032220000300e00001003a000040da007e
:100600002002e200020035002822ef0021e2a800cb
:100610002342ab000d003a002342a8000b00370034
:10062000032320000300e00001003a000040da004c
:100630003002e200020035003822ef0031e2a8006b
:100640003342ab0001003a003342a8008201780037
:100650000b0037003102fb00e10f500004003a00ac
:100660002322ab00feff3a0024118800030037006c
:100670003322ab00feff3a00a41188008301e90099
:100680000300e000f3ff3a00e10f500003003a00de
:100690002302ab00feff32000b0037003302ab0039
:1006a000feff32000800370033002000b3bf9f0078
:1006b000c0bf9f00d1bf9f00e2bf9f006a8057006c
:1006c000f00307006fb99700020078000080fa007d
:1006d000000006000a00fa0051002000b1bf9f0090
:1006e000c0bf9f006a805700e80307005fb897000b
:1006f0000080fa0000000600889fbe008004780099
:10070000704780000000e00004003a000e0007007f
:100710000084eb000000e00008003500784780000e
:100720000900e0000500320009004400060007004f
:100730000000e00001003d000084eb0008007800ac
:100740004f04be0000000600800078000100e000b9
:1007500003003a00000020007047880000000500f8
:100760000080eb0002002000828f500002003e005b
:10077000714788000000eb00000006000000050043
:1007800003f0a200889fbe008a9fbe008c1f7800e5
:10079000fa000700010133006450e1004f0032000d
:1007a0006420e1005200320003826c0007003b002d
:1007b0000905d0000306d000820f54000c065d002e
:1007c0000200390002003200890178000306780037
:1007d0008582550004003d000003fd008103fd00fb
:1007e0008502ea008b854200840f720002003b0004
:1007f00060001000e08018006011b8000005eb00f8
:100800007a28e1000a00390006007800c75ddd00a3
:10081000f707b200878075002d00370082817100d4
:100820000a017800610560008180d1000080d3005a
:100830008502e900f9ff3b00060440008784480078
:1008400002003b0060041400e0841c000988a3003f
:10085000070032008a8171008281710061016400a9
:100860008904d1000884d3008b05e8001700370005
:100870000978a30013003a000b00e00013003400d5
:100880008b05e9000804440089844c000a44740084
:100890000978a3000d003a000b00e00007003400c7
:1008a0008b05e9000804440089844c0001003a00eb
:1008b0000b0020000978a300f7ff32000001eb00d5
:1008c00002003700828171000a0178007000070081
:1008d0000cf0a70001f0a000b90037006420e1008f
:1008e00002003a00838f6c00b90033000801be009b
:1008f0000200be00b2003700889fbe008a9fbe0083
:100900008c1f78009d000700a400330003866c0054
:100910006450e1002e0032006420e1003300320018
:100920006150e1002f0032006120e100310032000f
:1009300085855500eb07b000090020000804200061
:10094000050037000804440089844c000a00310087
:100950000603430087834b000001530081815b0045
:10096000f8ff33000203be000800a00008044400a2
:1009700089844c00f6ff3900c639dd00830173001d
:1009800001003200130020008904d1000884d30044
:100990000998a300050032000800a7000300a0008a
:1009a0008904d1000884d3008b05e8008904d100b4
:1009b0000884d3000001eb000281d200340007005c
:1009c00001f0a1000cf0a70001f0a0007c003700ae
:1009d0006420e1007e0032000801be000200be007b
:1009e000f7ff37006120e100790032006000b800b5
:1009f000f3ff37000000200001f82700f0ff370068
:100a000014002000a9003700f4ff2f00a7003700d2
:100a10000001be00440007000470a70003f0a1001d
:100a200003f8a30013003a006509b100100032007a
:100a3000090035006928e1000200350001002800a6
:100a40000000050000004000818048008502e900a8
:100a5000fcff3a0000000600f88f42000500350058
:100a60008100d1000080d3008502e800fcff3a003d
:100a7000000006008000eb00000005004f89de004a
:100a800082017800a40037006011b800b20037007e
:100a900081002000618055000b003d000b0020000c
:100aa00061fe2f000100e1001d0034008281710011
:100ab000610164008904d1000884d3000000e800cb
:100ac000faff3a007100200061006400030070002a
:100ad000020060000900320061044400e0844c0020
:100ae0000988a500050032008b05e8006808e100d0
:100af00002003a008904d1000884d300f20f2000dc
:100b00000258e10005003d00c75ddd00f907b200b5
:100b10008980750008007800000006000bf82700a7
:100b20008b00780000000500c70ade00f107b20064
:100b3000f50fb20008003200e1cf4200020032009f
:100b40000170a00024000500810f70000100320038
:100b50000408050044000500810f700002003a00ff
:100b6000140005008502e9000000400081c0480033
:100b7000fcff3b000170a000240005000004be0043
:100b8000e9ff07000003be000405be000200be002e
:100b9000e5ff0700844f7500000006000200be005c
:100ba0006450e100050036006420e10002003600d8
:100bb0000968a30001003a000800be000160a0001f
:100bc0004f0678004f05be004f04be00000006002f
:100bd000f0ff2f00f1ff2700f9ff3700889fbe00cc
:100be0008a9fbe008c1f7800e4ff0700ebff3300f4
:100bf00003866c006450e100240032006420e100b0
:100c0000270032006150e100220032006120e10043
:100c1000210032008b854200eb07b1000134b8009f
:100c2000003ab8000804420089844a00013ab8003a
:100c30000030b8008880400009014a0004003300f9
:100c40000000400081804800020149008b05e90056
:100c5000c909dd008301700001003200130020008b
:100c6000c814de004814dd004709de001200b2009f
:100c7000c808de000884700085ff070001f0a100ad
:100c80000cf0a70001f0a000cdff37006120e100cb
:100c9000cfff32000801be000200be00f7ff3700a0
:100ca0006150e100fcff3a00c9ff3700889fbe0099
:100cb0008a9fbe00841f7800b0ff07004f007800b5
:100cc00011003300f0ff2f00838f6c0006003b0003
:100cd000040565000a00a7000800370009f0a60017
:100ce0001000200008003700820f5400838f5c0042
:100cf000030039001000200001003e000000200029
:100d000009f0a7000000ea004f05be004f04be0036
:100d10000000e00000000600881f7800030478004f
:100d20000300e00007003d0060001000e0801800b4
:100d300060011900e081190002003b0001f02d0064
:100d4000030037000400070008f0a70001f0a0002e
:100d50004f04780000000600889fbe008a9fbe00f6
:100d600000827000040271000482710026003200cb
:100d70000004be000200be006011b8006b09200034
:100d8000950220000182cf000a0039000541b10020
:100d90000082cf00070039000541b1000982cf0071
:100da000040039000541b1000882cf00010039007c
:100db0000541b10005425200120032000a003b001a
:100dc00082817100610164008100d1000080d30044
:100dd0008984d3000884d3008b05e8000442e8002e
:100de000f7ff3a00070037000804440089844c00ec
:100df00000004800818048008b05e9000442e900ba
:100e0000f9ff3a0022ff07004f05be004f04be0065
:100e100000000600418720006a000700800078007b
:100e20000080eb000100e000040035004187200055
:100e3000a0002000020007004f80de000000060036
:100e4000889fbe008a1f78000004be00c900900081
:100e500069009000808f500005003900090078007b
:100e6000b70007008080eb000000e00016003500ae
:100e7000084578004900900008587800c0049800a0
:100e80001900780000b8a30004003a0000a8a300ed
:100e900007003200ea4f540005003a0009007800cc
:100ea0000d0007008080eb000000e00006003a0023
:100eb00000c02000190060000200320049009000cc
:100ec000e00498008a80fb00010078004f0578005c
:100ed0004f04be0000000600889fbe008a1f7800f5
:100ee000000478000800e0000d003a00288c200083
:100ef000700544008004eb00580078000000e0001a
:100f000004003200f4ff07000000e00001003d0093
:100f10008084eb008a0f5400f7ff3a002500370069
:100f200000002200180060008004eb002100320065
:100f3000a80490000f0037000901510038409000cc
:100f40000000fb0089007800a0fd07000000e00021
:100f500007003c00280090004004980060049800be
:100f6000500c98001890a0008084eb00110037000e
:100f70008084440048019000828f5400eeff3900c5
:100f800028009000400498009800780002c02000db
:100f90000281600001003a003800900001e8a300df
:100fa000020032006004980001003700500c9800e5
:100fb0008004eb00090078004f0578004f04be0064
:100fc00000000600889fbe008a9fbe008004780053
:100fd000010478002c003700c800900068009000e1
:100fe000808f50000400390008007800540007008a
:100ff0000000e000370035000040200018006000cd
:1010000009003200a100200009007800420007001a
:10101000800578000b00e0000300320061851400b9
:101020000a854500040037000900780034000700f5
:10103000000578008005eb0048009000e800900073
:10104000808050008a8f5000020031000105780036
:101050008005eb000a017800890078002100070074
:10106000480090000a004000400498000b00e00097
:10107000040032000800780097ff07000000e0003d
:1010800014003a008a8444001904e000d2ff3a00b8
:101090000080200018006000060032000800780080
:1010a0008dff0700800078000080eb000100e00069
:1010b00009003a0001c02000988060000000eb00a9
:1010c0000500320048009000600498000000eb002a
:1010d000010037000080eb004f05be004f04be004a
:1010e000000006008001780002003700b159780046
:1010f0000201e9000200e000fcff3a0000000600e7
:1011000080007800010178003104e000fdff3a0022
:1011100000005100000006000001eb000002780012
:10112000b041780081cf510001003a0004017800fd
:101130000304e000f9ff3a00020078000000060016
:10114000889fbe008a1f780000047800c8009000c5
:10115000680190000000eb00828f50003c003900d5
:10116000180078002200290002016000e20f5100ff
:1011700007003200012024000000e00001003d00d3
:1011800001202000008c70000080eb003000370050
:101190000200260002006000820f500009003a00a1
:1011a00038009000808f5000060039000800780059
:1011b00049ff0700800078000080eb000100e0009c
:1011c00023003a001805780000c0200000006500e8
:1011d00018003a00a80490006002200008004000b7
:1011e000808f540013003a0000202000ef00070019
:1011f000200498000000e00005003a00290498004f
:10120000490498008904e800390498000800370070
:101210000a60a0000a0c7800400498000120200019
:101220008080400031049800400c9800500c9800d9
:101230000c0007002800900050049800380090002f
:101240006004980000002600180c70000000eb00fd
:101250004f0578004f04be0000000600409d2000ae
:1012600061003700881f7800888e20001804e00095
:1012700003003a00f9ff070020c0b300004c7800db
:101280004f04780000000600889fbe00000478002c
:101290000800780010ff0700800478000004200098
:1012a0001800600002003200280090005a00070079
:1012b0000000eb0020049800384090000004e0009b
:1012c000050035000000fb00b7fc07000000e0004f
:1012d000010032008084eb00181090000000e00054
:1012e00008003200fbfc07000000e00001003200b3
:1012f0008084eb0018109000470007000000eb000e
:10130000101498000008200018006000150032003a
:101310000001eb006000b800438c20000202d00006
:1013200063027a00880f520005003a000000400076
:1013300081804800008041000008eb000600370073
:1013400061004000e08048000201e800e80f500022
:10135000e08f5800f0ff3a00080078002e000700e8
:101360000e003700000c780000c0eb0030449800fd
:10137000600220000800400020049800400498000b
:1013800050049800400c980060049800500c98009d
:101390007004980076004400000c98000900780062
:1013a0004f04be0000000600881f78000004eb0018
:1013b0006140b800e2ff2f00f3ff2f00b5000700e7
:1013c000228d2000620078000000e0000100320061
:1013d000adff07000804e800e80f5400f4ff3a00ee
:1013e0004f04780000000600010020000100e0002a
:1013f00008003200010080000100e000050032001a
:101400008100e900010088008100d0000200800016
:1014100000b17800000006000000e0002f0032005c
:10142000c0017800e38f51002c0036000308a300b0
:101430002a003a00314780000100e000020032003b
:10144000810f5000040031001100980030478800df
:101450001600370082007800110190000200e000c1
:1014600002003200800f5100faff390011027800ab
:1014700084824000850f500018003900808f520090
:1014800003003a008308420001007800070037009b
:101490000200e0000300320083014000830f51008e
:1014a0000e00390012009800900098009000900003
:1014b0000100e0000900320010014000828f50005e
:1014c00006003a00428e20000009eb00100178006f
:1014d00011084100910090001100980000000600e2
:1014e000889fbe0000047800214780000100e000d2
:1014f00002003200010078000d0037003147800003
:10150000608e200004003700910f54002500360043
:101510000180e800910090000100e000faff3a002d
:1015200010003700920f54001e0036000280e800c1
:10153000100178000200e000faff3a001101780083
:1015400031478000608e200004003700910f540066
:10155000140036000180e80091009000828f500056
:10156000faff3a0059478000888f5400010031008b
:101570008804780009007800360007000000e000c9
:1015800004003a00888f5400050032008904d1001d
:10159000f5ff3700091878009fff0700d2ff3700da
:1015a0000000eb004f04be0000000600881f78001a
:1015b000630440000800a1008000eb00800f54008d
:1015c00021003600e30f540001003e0048002000d7
:1015d00008007800c2ff07008000eb000000e00078
:1015e0001900320090007800910178006481510068
:1015f000880f5100030031001101900002087800ab
:10160000070037000881400002087800910190002f
:10161000130198001001780011091400880878005f
:10162000100178000000eb000200e000040032002e
:10163000920190000300e000010032000280e80007
:10164000204788008180e800010078004f0478007e
:1016500000000600800078000000eb000100e000c0
:10166000050034000100780023fc0700e10f400072
:1016700001003a000000eb000000060000c0da00a4
:101680000000060000c0da000000060000c0da001a
:1016900000000600020ab900001bb9000200b800f1
:0c16a000810042008100430000000600b1
:020000040000fa
:1016ac005374000061720000742000004269000055
:1016bc007420000065720000726f00007200000060
:1016cc004461000074610000204200006974000055
:1016dc0020650000727200006f7200000050000064
:1016ec0061720000697400007920000065720000ce
:1016fc00726f000072000000537400006f700000e5
:10170c002042000069740000206500007272000025
:08171c006f72000000000000e4
:020000040000fa
:101724000200fa00881f7800a20407008021ef005d
:101734008621ef000621ef0011e1a800210c8000b2
:1017440080ff2f00008060006000b300200c880040
:101754008461a90071368000f00f2e008080600043
:10176400002021000100700070368800a0a620002f
:1017740060088800c9a2a900510c800080ff2f00d6
:10178400008060006000b300500c88008a61a900ea
:1017940011368000f00f2e008080600000302100a0
:1017a4000100700010368800c842a900010f8000b3
:1017b4000070200001007000000f8800e1348000f8
:1017c40000fe2f00008060006000b300e034880059
:1017d400e1348000f00f2e00808060000070200053
:1017e40001007000e0348800810f80000070200048
:1017f40001007000800f88000135800000fe2f007a
:1018040000806000b000b30000358800013580001e
:10181400f00f2e008080600000c0200001007000e6
:10182400003588004136800000fe2f0000806000f3
:101834003000b300403688002135800000fe2f00c0
:10184400008060005000b300203588000111800042
:1018540090ff2f0000806000001188002002a90082
:101864002062a900a00220004011880021e2a80003
:101874002342a800010037003011800010118000bd
:10188400610060000000e000fbff3a000500370043
:1018940000000000030037000000000001003700d2
:1018a4000000000010118000610060000000e000f2
:1018b400f7ff3200301180008000eb0071fc07005c
:1018c4000002be0080418000914180000001be0002
:1018d4000400be0049fc07000000e000eeff3a00ef
:1018e4000000000010118000610060000000e000b2
:1018f400fcff3200301180008000eb0061fc070027
:10190400404188005141880000000000111180000e
:1019140000202000008060000000e000fbff3a008f
:10192400404180005141800038fc070000007800ed
:101934002011880000000000101180006100600088
:101944000000e000fcff3200301180008000eb005a
:101954004cfc0700604188007141880000000000d1
:101964001111800000202000008060000000e000d1
:10197400fbff3a00604180007141800023fc0700b6
:101984000000780020118800000000001011800081
:10199400610060000000e000fcff320030118000b4
:1019a4008000eb0037fc07000002be00a04180006d
:1019b400b14180000001be000400be000ffc07001e
:1019c4000000e000b6ff3a00404180005141800031
:1019d4006011b80009fc07000000e00007003200b5
:1019e40040418000514180000200200003f82300a0
:1019f40002fc07000000e0004f003a006041800054
:101a040071418000a2702d0033c2230072fc0700d4
:101a1400604188007141880040418000514180004c
:101a24006011b800f5fb07000000e0001d003a005b
:101a3400604180007141800040408800514088002e
:101a44006000b80060408800714088000a003700d8
:101a5400418d200000802000040107000080200048
:101a64001000be00c900070000802000b0009000f4
:101a740020009000e1000700a0468000b1468000ed
:101a840018c0b300f2282c0053c72300ddfb070065
:101a94000000e00001003c000044eb000804e0000a
:101aa400ebff3a00404180005141800002002000d9
:101ab40003f82300d1fb07000000e0001e003a00f9
:101ac400604180007141800001f0a2004040880024
:101ad400514088006000b800604088007140880070
:101ae4000a003700418d200000802000df0007003d
:101af400008020001000be00a40007000080200029
:101b0400b000900020009000bc000700c046800098
:101b1400d146800018c0b300f2282c0053c72b0014
:101b2400b6fb07000000e000010035000044eb00b4
:101b34000804e000ebff3a0040418000514180007e
:101b44000200200003002400acfb07000000e000ba
:101b54000700320040418000514180000200200013
:101b640003042400a5fb07000000e00053003a0032
:101b74006041800071418000b2fd20009304240084
:101b840015fc0700020020004333240059fb070022
:101b940060418800714188004041800051418000cb
:101ba400020020000300240094fb07000000e00072
:101bb4001d003a006041800071418000604088004f
:101bc400714088006000b80040408800514088009f
:101bd4000a003700418d200000802000a300070088
:101be400008020001000be00680007000080200074
:101bf400b00090002000900080000700e0468000c4
:101c0400f146800018c0b300a2702d0033c2230037
:101c14007cfb07000000e00001003c000044eb00f6
:101c24000804e000ebff3a0040418000514180008d
:101c3400020020000304240070fb07000000e00001
:101c44001e003a00604180007141800001f0a20052
:101c540060408800714088006000b80040408800ff
:101c6400514088000a003700418d20000080200088
:101c74007e000700008020001000be004300070023
:101c840000802000b0009000200090005b0007005e
:101c9400004780001147800018c0b300e27a240096
:101ca40013d62b0055fb07000000e00001003500af
:101cb4000044eb000804e000ebff3a00028020003f
:101cc4006000b8000089be00028020006000b800f7
:101cd4002001980031019800008020001000be000f
:101ce4002a00070000802000b0009000200090002f
:101cf400420007000000eb00000f78000000200005
:101d040001122400a0468800b1468800000020008b
:101d140001122c00c0468800d14688000000200033
:101d240001122400e0468800f146880000002000eb
:101d340001122c0000478800114788006000b80099
:101d440000418800114188006000b80020418800eb
:101d540031418800e421ef00f421ef00000000008d
:101d64001111800000202000008060000000e000cd
:101d7400fbff3a00c0418000d141800023fb0700f3
:101d84000000780020118800c6fe37000400fa0025
:101d9400881f7800008fbe0018c0b3006011b8001f
:101da4001e00be0017fb07000000e00001003c001d
:101db4000044eb000804e00002003200cda2a900b8
:101dc400040037001e00be0001f0a200008fbe0018
:101dd400cda2a80002002b00635224001e00be0006
:101de4007dfb070009fb070000007800000c880059
:101df4004f0478000080fa00000006000400fa0096
:101e0400881f7800008fbe0018c0b3006011b800ae
:101e14001e00be00fbfa07000000e00001003c00c9
:101e24000044eb000804e00002003200cc42a900a8
:101e3400040037001e00be0001f0a200008fbe00a7
:101e4400cc42a80002002b00635224001e00be00f6
:101e540061fb0700edfa070000007800300c8800f1
:101e64004f0478000080fa00000006001400fa0015
:101e7400881f7800000f9800110f9800200f800031
:101e8400cf80de00fcfa0700a2582e0033e82300be
:101e940051fb070002002000434b240095fa070081
:101ea400028120000089be00a00f8000cf80de00e8
:101eb400f1fa0700a2582e0033e8230046fb07007e
:101ec40002002000434b24008afa0700028120000c
:101ed4002001980031019800008120001002be000a
:101ee40000812000b0009000200090000001be009e
:101ef4000400be0022fa07000200200003002400b0
:101f04007cfa07000041880011418800200f8000fe
:101f1400cf80de00d8fa0700b2fd2000930c240025
:101f24002dfb070002002000434b240071fa070038
:101f3400828120000089be00a00f8000cf80de00d7
:101f4400cdfa0700b2fd2000930c240022fb070009
:101f540002002000434b240066fa0700828120001f
:101f64002001980031019800808120001002be00f9
:101f740080812000b0009000200090000001be008d
:101f84000400be00fdf90700e2f92e0073d223001d
:101f940011fb0700c274230093e0230055fa0700e5
:101fa4002041880031418800404180005141800037
:101fb4006011b80091fa07000000e00021003a0027
:101fc4004440800055408000004180001141800061
:101fd4000001be000400be00e8f907001e099000dd
:101fe4000089be001e089000680440006440800020
:101ff4007540800020418000314180000001be0016
:102004000400be00ddf90700008cbe001e0890002d
:102014001000be00628f2200c3062400eefa0700ff
:10202400008fbe001e089000680040001000be0033
:10203400628f2200c3062400e7fa070020079800f5
:102044003107980040418000514180000200200087
:1020540003f8230069fa07000000e00023003a00b7
:102064001e089000640440004440800055408000f5
:1020740000418000114180000001be000400be0048
:10208400bef90700008cbe001e0890006c044000de
:102094006440800075408000204180003141800010
:1020a4000001be000400be00b4f90700008cbe00ad
:1020b4001e089000640040001000be00628f2200e1
:1020c400c3062400c4fa0700008fbe001e08900057
:1020d4006c0040001000be00628f2200c306240082
:1020e400bdfa07002007980031079800404180009e
:1020f4005141800002002000030024003ffa070041
:102104000000e00021003a001e089000680440002e
:10211400644080007540800020418000314180008f
:102124000001be000400be0094f90700008cbe004c
:1021340044408000554080000041800011418000ef
:102144000001be000400be008cf907001e099000c7
:102154000089be001e089000680040001000be0008
:10216400628f2200c30624009bfa07002007980010
:10217400310798001e0890001000be00628f2200f4
:10218400c306240094fa0700008fbe00404180007b
:1021940051418000020020000304240017fa0700c4
:1021a4000000e00023003a001e0890006c04400088
:1021b40064408000754080002041800031418000ef
:1021c4000001be000400be006cf90700008cbe00d4
:1021d4001e08900064044000444080005540800084
:1021e40000418000114180000001be000400be00d7
:1021f40062f90700008cbe001e0890006c004000cd
:102204001000be00628f2200c306240072fa070089
:1022140020079800310798001e08900064004000d1
:102224001000be00628f2200c30624006afa070071
:10223400008fbe0018c0b300a299290093e92300bf
:102244001e00be00eff907000000e00001003c00a2
:102254000044eb000804e00003003200a0992900c8
:1022640091e92300008fbe0018c0b300a299290091
:1022740093e92b001e00be00e0f907000000e00017
:10228400010035000044eb000804e00003003200c4
:10229400a099290091e92b00008fbe0018c0b3005b
:1022a4000200200003e823002e009000be009000ee
:1022b400d4f907000000e00001003c000044eb00fa
:1022c4000804e000040032000000200001e82300bc
:1022d400200798003107980018c0b30002002000be
:1022e40003e82b002e009000be009000c3f9070005
:1022f4000000e000010035000044eb000804e000a9
:10230400040032000000200001e82b0020079800a0
:10231400310798002e019000be0190001e00be00ff
:1023240017f9070040079800510798002e01900004
:10233400be0190001e00be0010f90700600798005f
:10234400710798000e0890004e019000de01900085
:102354000288be000e089000640040006e019000e8
:10236400fe0190000288be004f0478000080fa004d
:10237400000006000800fa002007980031079800c2
:102384000000eb00000f78003e0090000000e00029
:1023940009003a002e0090000000e00003003a001b
:1023a4000000eb00100798000b003700100020001d
:1023b40010079800080037002e0090000000e0008d
:1023c40003003a00200020001007980002003700a4
:1023d4003000200010079800f0418000e20f500008
:1023e4003c003200e20f500005003e000000e00017
:1023f40008003200e10f500015003200c20037001f
:10240400e30f50006e003200e40f5000a0003200d1
:10241400bd0037001e009000e10f5000bc003a00e0
:1024240010002000f04188001000200000428800c5
:1024340010002000104288004428ef009000200083
:10244400304288004828ef004a28ef00bb003700dc
:10245400004280000000e800004288001e00900056
:10246400e10f500003003a00104280000000e80031
:10247400104288001e009000e20f500003003a0052
:10248400204280000000e8002042880001428000d1
:10249400b05d2000808f50009f0034001142800006
:1024a400703e2000808f5000060034002000200081
:1024b400f04188004028ef004228ef004428ef0054
:1024c4009e0037003e28ef0060b5280050fa070050
:1024d4009a003700004280000000e80000428800b3
:1024e4001e009000e10f500003003a0010428000eb
:1024f4000000e800104288001e009000e20f500027
:1025040003003a00204280000000e80020428800d6
:1025140001428000b05d2000808f500080003400b4
:1025240011428000703e2000808f5000070034006c
:10253400304280000000e900304288004028ef006b
:102544004228ef004428ef001700370021428000a2
:10255400703e2000808f5000100034003042800014
:10256400110020008008dd0050428000010070004e
:1025740050428800304280000000e9003042880068
:10258400404280000000e800404288004028ef00fc
:102594004228ef004428ef00030037003e28ef00f4
:1025a40060b628001afa0700304280000000e000fc
:1025b4005d003d0030002000f04188005f003700de
:1025c400004280000000e800004288001e009000e5
:1025d400e10f500003003a00104280000000e800c0
:1025e400104288001e009000e20f500003003a00e1
:1025f400204280000000e800204288000142800060
:10260400b05d2000808f50004900340040428000bb
:1026140061006000004078000004e0000e00320019
:1026240021428000703e2000808f5000060034005c
:1026340040002000f04188004028ef004228ef00cd
:102644004428ef003d0037003e28ef0050b7280033
:10265400eff907003900370011428000703e200076
:10266400808f50000600340040002000f0418800b4
:102674004028ef004228ef004428ef002f003700e5
:102684003e28ef0050b72800e1f907002b0037007f
:10269400004280000000e800004288001e00900014
:1026a400e10f500003003a00104280000000e800ef
:1026b400104288001e009000e20f500003003a0010
:1026c400204280000000e80020428800014280008f
:1026d400b05d2000808f500017003400114280004c
:1026e400703e2000808f5000030034001000200052
:1026f400000f78000200370020b82800c4f9070052
:102704003e28ef000d0037003e28ef000b00370095
:102714000000000009003700000000000700370037
:10272400000000000500370000000000030037002f
:102734000000000001003700000000001e007800c7
:102744000000e000040032000000eb00000f7800fd
:1027540050428000010037000000eb000080fa00c6
:04276400000006006b
:020000040000fa
:10276800d408000010000000020000000000200053
:102778004100000020c100000020410000002000ae
:10278800c100000000080000280000000000000050
:1027980028080000160000000200000000000400e5
:1027a8004200000004420000007e430000007d005b
:1027b800430000007c43e800030000003e080000de
:1027c8000e000000000000004c0800008800000017
:1027d8000200000001000000007208007308720087
:1027e8000872080072087200086208000000000001
:1027f80000000000000000000000000000000000d1
:1028080000000000000000000002080001019a001a
:10281800089b08009a089a00089a08009a088a00f3
:102828000800000000000000000000000000000098
:10283800000000000000000000000000000002008e
:1028480008020200c208c30008c20800c208c20089
:1028580008c20800b20800000000000000000000e4
:102868000000000000000000000000000000000060
:10287800000000004c087400089c080000000000dc
:10288800000000000000000000000000e808000050
:102898000200000000000000ea080000020000003a
:1028a8000200000004000000e4080000040000002a
:1028b80000000000ec080000020000000200000018
:1028c80001000000ee080000020000000000000007
:0428d80000000000fc
:020000040000fa
:1028dc000200fa00000f78001e0078000000e000f3
:1028ec00030032001e007800e20f500017003a007f
:1028fc002143a90030c0b30024e3b7002043a80053
:10290c003003a8002c03a9001e00780000407800ba
:10291c00674060000080fb00670060004500dd0040
:10292c0002198000f1f12f0081006100010070009c
:10293c000019880021e3a8000000000000198000a5
:10294c00620060000000e000fcff32000080fa0032
:10295c00000006000000fa002023a9000080fa0005
:10296c00000006000000fa0000198000004078000a
:10297c00614060000080fb000080fa00000006004f
:10298c000000fa0000198000610060000000e00007
:10299c00030032002003a90000188000010037005a
:1029ac00000028000080fa00000006000000fa0079
:1029bc00f0032000303a8800213a800000fe2f00fe
:1029cc00008060000000a000203a8800213a8000be
:1029dc00f0f32f0000806000203a880012002000e5
:1029ec0080072000a1092000337420008049780062
:1029fc008149780082497800103a80000001780003
:102a0c000200a00060042000710520002374200047
:102a1c0080497800814978008249780000000000e4
:102a2c00113a800000002700808060000000210027
:102a3c00808f5000faff3a0000000000113a80002d
:102a4c0000022000008060000000e000fbff32006c
:082a5c000080fa0000000600f2
:020000040000fa
:0200000401f009
:04000000ffff0000fe
:020000040000fa
:0200000401f009
:04000400ffff0000fa
:020000040000fa
:0200000401f009
:04000800ffff0000f6
:020000040000fa
:0200000401f009
:04000c0000000000f0
:020000040000fa
:0200000401f009
:040010006700000085
:020000040000fa
:0200000401f009
:040014005f00000089
:020000040000fa
:0200000401f009
:04001800f7000000ed
:020000040000fa
:0200000401f009
:04001c00dfff000002
:00000001FF
