:020000040000fa
:080000000002040000000000f2
:020000040000fa
:04000800d002000022
:020000040000fa
:04000c00d00200001e
:020000040000fa
:04001000d00200001a
:020000040000fa
:04001400d002000016
:020000040000fa
:04001800d002000012
:020000040000fa
:04001c00d00200000e
:020000040000fa
:04002000d00200000a
:020000040000fa
:04002400d002000006
:020000040000fa
:04002800d002000002
:020000040000fa
:04002c00d0020000fe
:020000040000fa
:04003000d0020000fa
:020000040000fa
:04003400d0020000f6
:020000040000fa
:04003800d0020000f2
:020000040000fa
:04003c00d0020000ee
:020000040000fa
:04004000d0020000ea
:020000040000fa
:04004400d0020000e6
:020000040000fa
:04004800d0020000e2
:020000040000fa
:04004c00d0020000de
:020000040000fa
:04005000d0020000da
:020000040000fa
:04005400d0020000d6
:020000040000fa
:04005800d0020000d2
:020000040000fa
:04005c00d0020000ce
:020000040000fa
:04006000d0020000ca
:020000040000fa
:04006400d0020000c6
:020000040000fa
:04006800d0020000c2
:020000040000fa
:04006c00d0020000be
:020000040000fa
:04007000d0020000ba
:020000040000fa
:04007400d0020000b6
:020000040000fa
:04007800d0020000b2
:020000040000fa
:04007c00d0020000ae
:020000040000fa
:04008000d0020000aa
:020000040000fa
:04008400d0020000a6
:020000040000fa
:04008800d0020000a2
:020000040000fa
:04008c00d00200009e
:020000040000fa
:04009000d00200009a
:020000040000fa
:04009400d002000096
:020000040000fa
:04009800d002000092
:020000040000fa
:04009c00d00200008e
:020000040000fa
:0400a000d00200008a
:020000040000fa
:0400a400d002000086
:020000040000fa
:0400a800d002000082
:020000040000fa
:0400ac00d00200007e
:020000040000fa
:0400b000d00200007a
:020000040000fa
:0400b400d002000076
:020000040000fa
:0400b800d002000072
:020000040000fa
:0400bc00d00200006e
:020000040000fa
:0400c000d00200006a
:020000040000fa
:0400c400d002000066
:020000040000fa
:0400c800d002000062
:020000040000fa
:0400cc00d00200005e
:020000040000fa
:0400d000d00200005a
:020000040000fa
:0400d400d002000056
:020000040000fa
:0400d800d002000052
:020000040000fa
:0400dc00d00200004e
:020000040000fa
:0400e000d00200004a
:020000040000fa
:0400e400d002000046
:020000040000fa
:0400e800d002000042
:020000040000fa
:0400ec00d00200003e
:020000040000fa
:0400f000d00200003a
:020000040000fa
:0400f400d002000036
:020000040000fa
:0400f800d002000032
:020000040000fa
:0400fc00d00200002e
:020000040000fa
:04010000d002000029
:020000040000fa
:04010400d002000025
:020000040000fa
:04010800d002000021
:020000040000fa
:04010c00d00200001d
:020000040000fa
:04011000d002000019
:020000040000fa
:04011400d002000015
:020000040000fa
:04011800d002000011
:020000040000fa
:04011c00d00200000d
:020000040000fa
:04012000d002000009
:020000040000fa
:04012400d002000005
:020000040000fa
:04012800d002000001
:020000040000fa
:04012c00d0020000fd
:020000040000fa
:04013000d0020000f9
:020000040000fa
:04013400d0020000f5
:020000040000fa
:04013800d0020000f1
:020000040000fa
:04013c00d0020000ed
:020000040000fa
:04014000d0020000e9
:020000040000fa
:04014400d0020000e5
:020000040000fa
:04014800d0020000e1
:020000040000fa
:04014c00d0020000dd
:020000040000fa
:04015000d0020000d9
:020000040000fa
:04015400d0020000d5
:020000040000fa
:04015800d0020000d1
:020000040000fa
:04015c00d0020000cd
:020000040000fa
:04016000d0020000c9
:020000040000fa
:04016400d0020000c5
:020000040000fa
:04020800d002000020
:020000040000fa
:04020c00d00200001c
:020000040000fa
:04021000d002000018
:020000040000fa
:04021400d002000014
:020000040000fa
:04021800d002000010
:020000040000fa
:04021c00d00200000c
:020000040000fa
:04022000d002000008
:020000040000fa
:04022400d002000004
:020000040000fa
:04022800d002000000
:020000040000fa
:04022c00d0020000fc
:020000040000fa
:04023000d0020000f8
:020000040000fa
:04023400d0020000f4
:020000040000fa
:04023800d0020000f0
:020000040000fa
:04023c00d0020000ec
:020000040000fa
:04024000d0020000e8
:020000040000fa
:04024400d0020000e4
:020000040000fa
:04024800d0020000e0
:020000040000fa
:04024c00d0020000dc
:020000040000fa
:04025000d0020000d8
:020000040000fa
:04025400d0020000d4
:020000040000fa
:04025800d0020000d0
:020000040000fa
:04025c00d0020000cc
:020000040000fa
:04026000d0020000c8
:020000040000fa
:04026400d0020000c4
:020000040000fa
:04026800d0020000c0
:020000040000fa
:04026c00d0020000bc
:020000040000fa
:04027000d0020000b8
:020000040000fa
:04027400d0020000b4
:020000040000fa
:04027800d0020000b0
:020000040000fa
:04027c00d0020000ac
:020000040000fa
:04028000d0020000a8
:020000040000fa
:04028400d0020000a4
:020000040000fa
:04028800d0020000a0
:020000040000fa
:04028c00d00200009c
:020000040000fa
:04029000d002000098
:020000040000fa
:04029400d002000094
:020000040000fa
:04029800d002000090
:020000040000fa
:04029c00d00200008c
:020000040000fa
:0402a000d002000088
:020000040000fa
:0402a400d002000084
:020000040000fa
:0402a800d002000080
:020000040000fa
:0402ac00d00200007c
:020000040000fa
:0402b000d002000078
:020000040000fa
:0402b400d002000074
:020000040000fa
:0402b800d002000070
:020000040000fa
:0402bc00d00200006c
:020000040000fa
:0402c000d002000068
:020000040000fa
:0402c400d002000064
:020000040000fa
:0402c800d002000060
:020000040000fa
:0402cc00d00200005c
:020000040000fa
:0402d000d002000058
:020000040000fa
:0402d400d002000054
:020000040000fa
:0402d800d002000050
:020000040000fa
:0402dc00d00200004c
:020000040000fa
:0402e000d002000048
:020000040000fa
:0402e400d002000044
:020000040000fa
:0402e800d002000040
:020000040000fa
:0402ec00d00200003c
:020000040000fa
:0402f000d002000038
:020000040000fa
:0402f400d002000034
:020000040000fa
:0402f800d002000030
:020000040000fa
:0402fc00d00200002c
:020000040000fa
:04030000d002000027
:020000040000fa
:04030400d002000023
:020000040000fa
:04030800d00200001f
:020000040000fa
:04030c00d00200001b
:020000040000fa
:04031000d002000017
:020000040000fa
:04031400d002000013
:020000040000fa
:04031800d00200000f
:020000040000fa
:04031c00d00200000b
:020000040000fa
:04032000d002000007
:020000040000fa
:04032400d002000003
:020000040000fa
:04032800d0020000ff
:020000040000fa
:04032c00d0020000fb
:020000040000fa
:04033000d0020000f7
:020000040000fa
:04033400d0020000f3
:020000040000fa
:04033800d0020000ef
:020000040000fa
:04033c00d0020000eb
:020000040000fa
:04034000d0020000e7
:020000040000fa
:04034400d0020000e3
:020000040000fa
:04034800d0020000df
:020000040000fa
:04034c00d0020000db
:020000040000fa
:04035000d0020000d7
:020000040000fa
:04035400d0020000d3
:020000040000fa
:04035800d0020000cf
:020000040000fa
:04035c00d0020000cb
:020000040000fa
:04036000d0020000c7
:020000040000fa
:04036400d0020000c3
:020000040000fa
:10040000efa520000e7f24000e01880000000000f0
:10041000000020000000e000020032000001200087
:100420002002880014000700d40007000000e0004c
:1004300003003a0060f620000100200002003700af
:100440000000200001002000810f70000100320038
:1004500014000700000020000000e000020032004d
:1004600000000200000000006c0802000000000014
:100470000040da000000fe004440a9000006200011
:100480000000e0000300320000002000a00188000e
:100490004440a800000006008a1f78008b1f7800e7
:1004a0000000060091018800800478000000eb0045
:1004b0001a003700e284440032a0b4009905ba0063
:1004c000e284440032a0b4009906ba00e2844400f9
:1004d00032a0b4000006eb00476fde00fd07b2005b
:1004e000636ce10003003a00ebff07000000eb0043
:1004f0000a003700606ce10004003a00005deb0088
:100500008b05e900fdff3e00040037006168e10053
:10051000010032000086eb000b00070019c7ba008b
:100520001905ba000e04e00003003a000a00e000da
:10053000e0ff3a0000000600fe07b2009e018800be
:100540008a047800f5ff3700395dba008b05e900b1
:100550000c003200295dba008b05e900080032006a
:100560000c00e00003003a00e284440032a0b40032
:10057000f5ff370019ddba008b05e900faff3a00f4
:100580008904e800e184440032a0b40000000600c1
:100590008a060400000000000000040000000000c3
:1005a0000040da000000fe000a00fa0011002000fe
:1005b000b1bf9f00c0bf9f006a8057008a0207003a
:1005c0004fb897000080fa00000006000a00fa0009
:1005d000e20f500034003e00d0528000e10f500086
:1005e00003003200e20f500011003a000c00370007
:1005f000032220000300e00001003a000040da007e
:100600002002e200020035002822ef0021e2a800cb
:100610002342ab000d003a002342a8000b00370034
:10062000032320000300e00001003a000040da004c
:100630003002e200020035003822ef0031e2a8006b
:100640003342ab0001003a003342a8008201780037
:100650000b0037003102fb00e10f500004003a00ac
:100660002322ab00feff3a0024118800030037006c
:100670003322ab00feff3a00a41188008301e90099
:100680000300e000f3ff3a00e10f500003003a00de
:100690002302ab00feff32000b0037003302ab0039
:1006a000feff32000800370033002000b3bf9f0078
:1006b000c0bf9f00d1bf9f00e2bf9f006a8057006c
:1006c0004b0207006fb99700020078000080fa0023
:1006d000000006000a00fa0051002000b1bf9f0090
:1006e000c0bf9f006a805700430207005fb89700b1
:1006f0000080fa0000000600889fbe008004780099
:10070000e05280000000e00004003a000e00070004
:100710000084eb000000e00008003500e852800093
:100720000900e0000500320009004400060007004f
:100730000000e00001003d000084eb0008007800ac
:100740004f04be0000000600800078000100e000b9
:1007500003003a0000002000e0528800000005007d
:100760000080eb0002002000828f500002003e005b
:10077000e15288000000eb000000060000000500c8
:10078000219f20006a000700800078000080eb00b5
:100790000100e00004003500219f2000a00020009f
:1007a000020007004f80de0000000600889fbe00a8
:1007b0008a1f78000004be00c90090006900900004
:1007c000808f50000500390009007800b70007004d
:1007d0008080eb000000e00016003500084578003e
:1007e0004900900008587800c0049800190078006b
:1007f00000b8a30004003a0000a8a30007003200dc
:10080000ea4f540005003a00090078000d00070087
:100810008080eb000000e00006003a0000c02000ed
:10082000190060000200320049009000e0049800c6
:100830008a80fb00010078004f0578004f04be005d
:1008400000000600889fbe008a1f78000004780020
:100850000800e0000d003a0008a4200070054400e4
:100860008004eb00580078000000e0000400320033
:10087000f4ff07000000e00001003d008084eb0071
:100880008a0f5400f7ff3a002500370000002200cd
:10089000180060008004eb0021003200a8049000e2
:1008a0000f00370009015100384090000000fb00a4
:1008b0008900780045ff07000000e00007003c00c9
:1008c000280090004004980060049800500c9800a4
:1008d0001890a0008084eb00110037008084440051
:1008e00048019000828f5400eeff390028009000ec
:1008f000400498009800780002c020000281600047
:1009000001003a003800900001e8a3000200320024
:100910006004980001003700500c98008004eb0040
:10092000090078004f0578004f04be000000060063
:10093000889fbe008a9fbe00800478000104780072
:100940002c003700c800900068009000808f500095
:100950000400390008007800540007000000e0009f
:100960003700350000402000180060000900320008
:10097000a1002000090078004200070080057800ef
:100980000b00e00003003200618514000a85450079
:1009900004003700090078003400070000057800e3
:1009a0008005eb0048009000e80090008080500037
:1009b0008a8f500002003100010578008005eb00ad
:1009c0000a017800890078002100070048009000a3
:1009d0000a004000400498000b00e00004003200d0
:1009e0000800780097ff07000000e00014003a00bc
:1009f0008a8444001904e000d2ff3a0000802000fd
:100a00001800600006003200080078008dff070023
:100a1000800078000080eb000100e00009003a004f
:100a200001c02000988060000000eb00050032004b
:100a300048009000600498000000eb0001003700bf
:100a40000080eb004f05be004f04be000000060012
:100a50008001780002003700b15978000201e900f6
:100a60000200e000fcff3a00000006008000780071
:100a7000010178003104e000fdff3a000000510060
:100a8000000006000001eb0000027800b041780091
:100a900081cf510001003a00040178000304e00016
:100aa000f9ff3a000200780000000600889fbe00af
:100ab0008a1f780000047800c80090006801900048
:100ac0000000eb00828f50003c00390018007800d5
:100ad0002200290002016000e20f510007003200ed
:100ae000012024000000e00001003d000120200062
:100af000008c70000080eb00300037000200260000
:100b000002006000820f500009003a003800900097
:100b1000808f5000060039000800780049ff070068
:100b2000800078000080eb000100e00023003a0024
:100b30001805780000c020000000650018003a0089
:100b4000a80490006002200008004000808f54003c
:100b500013003a0000202000ef0007002004980056
:100b60000000e00005003a002904980049049800bc
:100b70008904e80039049800080037000a60a000e2
:100b80000a0c78004004980001202000808040007a
:100b900031049800400c9800500c98000c0007009d
:100ba00028009000500498003800900060049800dd
:100bb00000002600180c70000000eb004f057800c4
:100bc0004f04be0000000600a0682000610037004e
:100bd000881f780068a520001804e00003003a0090
:100be000f9ff070020c0b300004c78004f047800e4
:100bf00000000600889fbe0000047800080078000e
:100c000010ff070080047800000420001800600036
:100c100002003200280090005a0007000000eb009c
:100c200020049800384090000004e00005003500e2
:100c30000000fb005cfe07000000e0000100320045
:100c40008084eb00181090000000e00008003200e3
:100c5000a0fe07000000e000010032008084eb00ed
:100c600018109000470007000000eb0010149800d7
:100c70000008200018006000150032000001eb00a1
:100c80006000b80023a420000202d00063027a00b2
:100c9000880f520005003a000000400081804800a3
:100ca000008041000008eb000600370061004000b2
:100cb000e08048000201e800e80f5000e08f580093
:100cc000f0ff3a00080078002e0007000e00370001
:100cd000000c780000c0eb00304498006002200057
:100ce0000800400020049800400498005004980038
:100cf000400c980060049800500c98007004980014
:100d000076004400000c9800090078004f04be00f3
:100d100000000600881f78000004eb006140b80066
:100d2000e2ff2f00f3ff2f00b500070002a520000f
:100d3000620078000000e00001003200adff070013
:100d40000804e800e80f5400f4ff3a004f0478006c
:100d500000000600010020000100e0000800320051
:100d6000010080000100e000050032008100e90080
:100d7000010088008100d0000200800000b17800ee
:100d8000000006000000e0002f003200c0017800e3
:100d9000e38f51002c0036000308a3002a003a001c
:100da000a15280000100e00002003200810f5000db
:100db0000400310011009800a0528800160037008e
:100dc00082007800110190000200e0000200320071
:100dd000800f5100faff3900110278008482400030
:100de000850f500018003900808f520003003a0030
:100df0008308420001007800070037000200e0008d
:100e00000300320083014000830f51000e003900bf
:100e10001200980090009800900090000100e000ff
:100e20000900320010014000828f500006003a0095
:100e300022a520000009eb001001780011084100f4
:100e4000910090001100980000000600889fbe00ed
:100e500000047800915280000100e000020032009e
:100e6000010078000d003700a152800040a520004d
:100e700004003700910f5400250036000180e8007f
:100e8000910090000100e000faff3a0010003700e6
:100e9000920f54001e0036000280e8001001780016
:100ea0000200e000faff3a0011017800a152800030
:100eb00040a5200004003700910f540014003600b4
:100ec0000180e80091009000828f5000faff3a0004
:100ed000c9528000888f54000100310088047800d6
:100ee00009007800360007000000e00004003a0026
:100ef000888f5400050032008904d100f5ff3700c7
:100f0000091878009fff0700d2ff37000000eb00b0
:100f10004f04be0000000600881f780063044000f4
:100f20000800a1008000eb00800f54002100360073
:100f3000e30f540001003e00480020000800780044
:100f4000c2ff07008000eb000000e0001900320043
:100f5000900078009101780064815100880f510061
:100f600003003100110190000208780007003700eb
:100f70000881400002087800910190001301980058
:100f80001001780011091400880878001001780019
:100f90000000eb000200e00004003200920190002b
:100fa0000300e000010032000280e8009052880057
:100fb0008180e800010078004f04780000000600fe
:100fc000800078000000eb000100e0000500340024
:100fd00001007800c8fd0700e10f400001003a0061
:100fe0000000eb000000060000c0da000000060070
:100ff00000c0da000000060000c0da0000000600b1
:10100000020ab900001bb9000200b80081004200ca
:0810100081004300000006000e
:020000040000fa
:1010180053740000617200007420000042690000ef
:101028007420000065720000726f000072000000fa
:1010380044610000746100002042000069740000ef
:1010480020650000727200006f72000000500000fe
:101058006172000069740000792000006572000068
:10106800726f000072000000537400006f7000007f
:1010780020420000697400002065000072720000c0
:101088006f72000000000000520800001e090000f6
:10109800ee08000012090000e2080000060900003e
:1010a800d6080000fa080000ca0800005e08000020
:1010b800be0800008e080000b20800008208000088
:1010c800a6080000760800009a0800006a080000d8
:020000040000fa
:1010d8000c00fa000000eb00200798000000eb006d
:1010e800300798000000eb00400798000000eb0074
:1010f800500798002f0407002e040700c9e2a90032
:1011080020002000f4030700a0a620007008880033
:1011180013e1a8002135800000fe2f000080600048
:101128006000b3002035880031368000f00f2e00b3
:101138008080600000302000010070003036880098
:101148000111800090ff2f000080600000118800ce
:101158002002a9002062a900a002200040118800f6
:1011680021e2a8002342a80000712200000f7800a5
:1011780000000000fd0307000000e000fdff320052
:10118800cde2a80000040700100798001e00900098
:10119800e40047001f000700cde2a90010118000fd
:1011a800610060000000e00006003200311180009c
:1011b80030072000808f500002003a000000eb004a
:1011c800000f7800f07022009e007800808f500099
:1011d8000e003c00000000001111800000202000db
:1011e800008060000000e000fbff3a002e00900045
:1011f8000000e00001003d006f0040004480de0078
:10120800f007b000201188001e0fe8000000000061
:10121800d8ff37004200fa00889fbe008a9fbe00b0
:101228008c9fbe006017980071179800e80047006f
:101238008284280008000900b21878006e10900017
:101248008000eb00d0428800e1428800fa014700a4
:10125800a185280008000900b11978006e109000d7
:101268008000eb0030438800414388000000eb0019
:10127800000f7800ac0037001e0078000000400026
:101288000000e80000004000000047004000900017
:1012980068004000001f98001e0078000000400011
:1012a8000000400000004700400090006800400037
:1012b8001000be004a0cdd00c604de00890474007c
:1012c8004a04dd001e007800c200dd00a092200064
:1012d800008040001003be001e007800000040009f
:1012e80000004000000047004000900064004000fb
:1012f8001001be0002b8b900000278000698b900d3
:1013080000007800000242000230b80001024200ea
:101318008400780008044000898448001e00780092
:10132800c200dd00a0932000008040001002be0033
:101338001e00780000004000000040000000470048
:10134800400090001001be0002a8b9000003780018
:101358000498b90000007800000343000220b80098
:10136800010343008600780008044000898448008f
:101378001e007800c200dd00a0942000008040001c
:101388001003be001e007800000040000000e800c6
:10139800000040000000470040009000640040004a
:1013a8001000be00e00f5000e08f580002003d0022
:1013b800f03fb0000180b0004609dd004a05de00bc
:1013c8000a057100ca8dde000a01be0002b8b90024
:1013d800000278000698b900000078000002420078
:1013e8000230b80001024200840078000004540072
:1013f80081845c001e007800c200dd00a0952000fa
:10140800008040001003be001e007800000040006d
:101418000000e80000004000000047004000900085
:101428001000be00e00f5000e08f580002003d00a1
:10143800f03fb0000180b000c609dd004a06de00ba
:101448000c867100ca8ede000c01be0002b8b9001d
:10145800000278000698b9000000780000024200f7
:101468000230b800010242008400780000005400f5
:1014780081805c000e1990000089be001e00e80003
:1014880000004000000040000000470040009000bd
:10149800e80240001e007800c200dd00a09620008f
:1014a800008040001003be001e00780000004000cd
:1014b8000000e800000040000000470040009000e5
:1014c800680040001001be0002b8b90000027800b0
:1014d8000698b90000007800000242000230b80007
:1014e80001024200840078000001be00e00f5100b4
:1014f800e08f590004003d00f0ff2f00f1002000ac
:101508000201400083814800c498de00111f980042
:10151800cf98de00211f98001e189000ae1890008a
:10152800808abe001e0fe8001e007800e30f5000fe
:1015380051ff34000000eb0010079800b20037009c
:101548001e009000000040000000e800000040007d
:101558000000470050089000680540001e009000f9
:1015680000004000000040000000470050089000c4
:10157800680040001000be004a0cdd00c604de0012
:10158800890474004a04dd001e009000c200dd00da
:10159800a0972000008040001002be001e009000ae
:1015a8000000400000004000000047005008900084
:1015b800640040001000be0000a9b90002017800d4
:1015c800048bb90086017800030141000020b800af
:1015d8000101410082007800080440008984480025
:1015e8001e009000c200dd00a0982000008040008e
:1015f8001002be001e0090000000400000004000e5
:1016080000004700500890001000be0000a9b90073
:1016180002017800048bb9008601780003014100bb
:101628000020b80001014100820078000804400051
:10163800898448001e009000c200dd00a0992000a7
:10164800008040001002be001e0090000000400014
:101658000000e8000000400000004700500890002b
:10166800640040001000be00e00f5000e08f5800fa
:1016780002003d00f03fb0000180b000c609dd0067
:101688004a01de0002817100321f98004a89de009b
:10169800421f98003e189000ce18900000a9b9008b
:1016a80002017800048bb90086017800030141002b
:1016b8000020b800010141008200780000045400b5
:1016c80081845c001e009000c200dd00a09a20000a
:1016d800008040001002be001e0090000000400084
:1016e8000000e8000000400000004700500890009b
:1016f8001000be00e00f5000e08f580002003d00cf
:10170800f03fb0000180b0004609dd00ca01de00ec
:1017180083017100531f9800ca89de00631f980077
:101728005e189000ee18900000a9b9000201780038
:10173800048bb90086017800030141000020b8003d
:1017480001014100820078000000540081805c00a3
:10175800008dbe001e0090000000e8000000400060
:101768000000400000004700500890006804400056
:101778001e009000c200dd00a09b200000804000f9
:101788001001be001e009000000040000000e800ac
:10179800000040000000470050089000680040002a
:1017a8001000be00009ab90004027800028bb9004c
:1017b80086027800050242000010b80001024200cb
:1017c80084007800e00f5000e08f580004003d00ce
:1017d800f2ff2f00f3002000000041008180490043
:1017e8004489de00721f9800cf89de000327980025
:1017f8007e1890008e209000008cbe001e00900085
:101808000000e800100798001e009000e30f500049
:101818004bff34000000eb00200798001a00370047
:101828002e0090000000400000004700400190009a
:101838002e0090000000400000004700400090008b
:10184800640040001000be000089be002e00900019
:101858000000400000004700400090006401400084
:101868002e0090000000400000004700400090005b
:10187800680040001000be000089be002e009000e5
:101888000000e800200798002e009000e80f5000a4
:10189800e3ff34000000eb00300798001a0037001f
:1018a8003e009000000040000000470050099000f2
:1018b8003e009000000040000000470050089000e3
:1018c800640040001000be000089be003e00900089
:1018d80000004000000047005008900064014000ec
:1018e8003e009000000040000000470050089000b3
:1018f800680040001000be000089be003e00900055
:101908000000e800300798003e009000e80f500003
:10191800e3ff34004e089000680040001000be004d
:10192800800078007e109000010878007e109000fa
:101938000081e8005e109000680040001000be00c2
:1019480000007800000978004f06be004f05be0071
:101958004f04be000080fa00000006000a00fa00ea
:1019680030079800410798000000eb00000f78004e
:101978000000eb0010079800f00f200020079800e7
:1019880070408000be009000910078000001400087
:10199800608120000000410001087800804080003c
:1019a800be0090008180e8009100780000014000ae
:1019b800408320000000410001087800704080004a
:1019c8008000400060812000008040009000780086
:1019d80090408000808f50000600340070408000e6
:1019e80080004000608120000080400010007800e6
:1019f80090408800704080000000e8007040880037
:101a080070408000ef0f50000b00340091408000c0
:101a18002e009000808f5000050034001000200038
:101a2800000f78000e28ef001228ef0002003700a0
:101a38000000eb00000f780080408000800040002c
:101a4800408320000080400090007800a040800083
:101a5800808f5000060034008040800080004000e5
:101a6800408320000080400010007800a0408800db
:101a7800804080000000e8008040880080408000ae
:101a8800ef0f50000b003400a14080002e009000a2
:101a9800808f5000050034001000200010079800c7
:101aa8001028ef001428ef00020037000000eb00b8
:101ab800100798004e0090001e0878004e00900015
:101ac8000080e8009e009000010878000080fa007d
:101ad800000006000800fa00200798003107980067
:101ae8000000eb00000f78003e0090000000e000ce
:101af80009003a002e0090000000e00003003a00c0
:101b08000000eb00100798000b00370010002000c1
:101b180010079800080037002e0090000000e00031
:101b280003003a0020002000100798000200370048
:101b3800300020001007980000408000e20f50009d
:101b48003c003200e20f500005003e000000e000bb
:101b580008003200e10f500015003200c2003700c3
:101b6800e30f50006e003200e40f5000a000320076
:101b7800bd0037001e009000e10f5000bc003a0085
:101b8800100020000040880010002000104088004d
:101b980010002000204088000628ef009000200058
:101ba800404088000a28ef000c28ef00bb003700ef
:101bb800104080000000e800104088001e009000df
:101bc800e10f500003003a00204080000000e800c8
:101bd800204088001e009000e20f500003003a00e9
:101be800304080000000e80030408800114080004c
:101bf800b05d2000808f50009f003400214080009d
:101c0800703e2000808f5000060034002000200025
:101c1800004088000228ef000428ef000628ef00a3
:101c28009e0037000028ef00c0802800d2fa070085
:101c38009a003700104080000000e800104088003b
:101c48001e009000e10f500003003a002040800081
:101c58000000e800204088001e009000e20f5000bd
:101c680003003a00304080000000e800304088005f
:101c780011408000b05d2000808f5000800034004b
:101c880021408000703e2000808f50000700340003
:101c9800404080000000e900404088000228ef0032
:101ca8000428ef000628ef001700370031408000b5
:101cb800703e2000808f50001000340040408000ab
:101cc800110020008008dd006040800001007000e5
:101cd80060408800404080000000e90040408800e3
:101ce800504080000000e800504088000228ef00c3
:101cf8000428ef000628ef00030037000028ef0053
:101d0800c08128009cfa0700404080000000e000e5
:101d18005d003d0030002000004088005f00370073
:101d2800104080000000e800104088001e0090006d
:101d3800e10f500003003a00204080000000e80056
:101d4800204088001e009000e20f500003003a0077
:101d5800304080000000e8003040880011408000da
:101d6800b05d2000808f5000490034005040800052
:101d780061006000004078000004e0000e003200be
:101d880031408000703e2000808f500006003400f3
:101d980040002000004088000228ef000428ef00df
:101da8000628ef003d0037000028ef00b082280029
:101db80071fa07003900370021408000703e20008a
:101dc800808f50000600340040002000004088004a
:101dd8000228ef000428ef000628ef002f00370044
:101de8000028ef00b082280063fa07002b003700b4
:101df800104080000000e800104088001e0090009d
:101e0800e10f500003003a00204080000000e80085
:101e1800204088001e009000e20f500003003a00a6
:101e2800304080000000e800304088001140800009
:101e3800b05d2000808f50001700340021408000e2
:101e4800703e2000808f50000300340010002000f6
:101e5800000f7800020037008083280046fa070048
:101e68000028ef000d0037000028ef000b003700b6
:101e780000000000090037000000000007003700dc
:101e880000000000050037000000000003003700d4
:101e98000000000001003700000000001e0078006c
:101ea8000000e000040032000000eb00000f7800a2
:101eb80060408000010037000000eb000080fa005d
:041ec8000000060010
:020000040000fa
:101ecc002a090000a0000000020000000008000029
:101edc000000080000000000f8ffff0000f8ff0001
:101eec00ff000400000000000400000000040000db
:101efc000000040000009e00f8ffff009af8ff00ad
:101f0c00ff9af800ffff9100f8ffff00f3030000b9
:101f1c0000f303000000fa0003000000fa030000c5
:101f2c00000200000000020000000000170000008a
:101f3c00001700000000000008000000000800006e
:101f4c000000f800ffff0000f8ffff000004000095
:101f5c000000040000000000040000000004000069
:101f6c0000e7f800ffffe100f8ffff00e3f8ff00d7
:101f7c00ffd5f800fffff00003000000f0030000a5
:101f8c0000f903000000f90003000000030000004a
:101f9c000003000000001700000000001700000004
:101fac0000000000160800001401000000000000f2
:101fbc000e080000080000000000000000080000ef
:101fcc000e00000000000000ca090000880000009c
:101fdc00020000000100000000f00900f109f0000f
:101fec0009f00900f009f00009e009000000000008
:101ffc0000000000000000000000000000000000d5
:10200c0000000000000000000002080001011800a0
:10201c000a190a00180a18000a180a00180a0800f7
:10202c000a0000000000000000000000000000009a
:10203c000000000000000000000000000000020092
:10204c0008020200400a41000a400a00400a40000f
:10205c000a400a00300a00000000000000000000e6
:10206c000000000000000000000000000000000064
:10207c0000000000ca09f200091a0a000000000062
:10208c00000000000000000000000000560a0000e4
:10209c000200000000000000580a000002000000ce
:1020ac000200000004000000520a000004000000be
:1020bc00000000005a0a00000200000002000000ac
:1020cc00010000005c0a000002000000000000009b
:0420dc000000000000
:020000040000fa
:1020e0000200fa00000f78001e0078000000e000f7
:1020f000030032001e007800e20f500017003a0083
:102100002143a90030c0b30024e3b7002043a80056
:102110003003a8002c03a9001e00780000407800be
:10212000674060000080fb00670060004500dd0044
:1021300002198000f1f12f008100610001007000a0
:102140000019880021e3a8000000000000198000a9
:10215000620060000000e000fcff32000080fa0036
:10216000000006000000fa002023a9000080fa0009
:10217000000006000000fa0000198000004078000e
:10218000614060000080fb000080fa000000060053
:102190000000fa0000198000610060000000e0000b
:1021a000030032002003a90000188000010037005e
:1021b000000028000080fa00000006000000fa007d
:1021c000f0032000303a8800213a800000fe2f0002
:1021d000008060000000a000203a8800213a8000c2
:1021e000f0f32f0000806000203a880012002000e9
:1021f00080072000a1092000337420008049780066
:102200008149780082497800103a80000001780006
:102210000200a0006004200071052000237420004b
:1022200080497800814978008249780000000000e8
:10223000113a80000000270080806000000021002b
:10224000808f5000faff3a0000000000113a800031
:1022500000022000008060000000e000fbff320070
:082260000080fa0000000600f6
:020000040000fa
:0200000401f009
:04000000ffff0000fe
:020000040000fa
:0200000401f009
:04000400ffff0000fa
:020000040000fa
:0200000401f009
:04000800ffff0000f6
:020000040000fa
:0200000401f009
:04000c0000000000f0
:020000040000fa
:0200000401f009
:040010006700000085
:020000040000fa
:0200000401f009
:040014005f00000089
:020000040000fa
:0200000401f009
:04001800f7000000ed
:020000040000fa
:0200000401f009
:04001c00dfff000002
:00000001FF
