:020000040000fa
:080000000002040000000000f2
:020000040000fa
:04000800c80200002a
:020000040000fa
:04000c00c802000026
:020000040000fa
:04001000c802000022
:020000040000fa
:04001400c80200001e
:020000040000fa
:04001800c80200001a
:020000040000fa
:04001c00c802000016
:020000040000fa
:04002000c802000012
:020000040000fa
:04002400c80200000e
:020000040000fa
:04002800c80200000a
:020000040000fa
:04002c00c802000006
:020000040000fa
:04003000c802000002
:020000040000fa
:04003400c8020000fe
:020000040000fa
:04003800c8020000fa
:020000040000fa
:04003c00c8020000f6
:020000040000fa
:04004000c8020000f2
:020000040000fa
:04004400c8020000ee
:020000040000fa
:04004800c8020000ea
:020000040000fa
:04004c00c8020000e6
:020000040000fa
:04005000c8020000e2
:020000040000fa
:04005400c8020000de
:020000040000fa
:04005800c8020000da
:020000040000fa
:04005c00c8020000d6
:020000040000fa
:04006000c8020000d2
:020000040000fa
:04006400c8020000ce
:020000040000fa
:04006800c8020000ca
:020000040000fa
:04006c00c8020000c6
:020000040000fa
:04007000c8020000c2
:020000040000fa
:04007400c8020000be
:020000040000fa
:04007800c8020000ba
:020000040000fa
:04007c00c8020000b6
:020000040000fa
:04008000c8020000b2
:020000040000fa
:04008400c8020000ae
:020000040000fa
:04008800c8020000aa
:020000040000fa
:04008c00c8020000a6
:020000040000fa
:04009000c8020000a2
:020000040000fa
:04009400c80200009e
:020000040000fa
:04009800c80200009a
:020000040000fa
:04009c00c802000096
:020000040000fa
:0400a000c802000092
:020000040000fa
:0400a400c80200008e
:020000040000fa
:0400a800c80200008a
:020000040000fa
:0400ac00c802000086
:020000040000fa
:0400b000c802000082
:020000040000fa
:0400b400c80200007e
:020000040000fa
:0400b800c80200007a
:020000040000fa
:0400bc00c802000076
:020000040000fa
:0400c000c802000072
:020000040000fa
:0400c400c80200006e
:020000040000fa
:0400c800c80200006a
:020000040000fa
:0400cc00c802000066
:020000040000fa
:0400d000c802000062
:020000040000fa
:0400d400c80200005e
:020000040000fa
:0400d800c80200005a
:020000040000fa
:0400dc00c802000056
:020000040000fa
:0400e000c802000052
:020000040000fa
:0400e400c80200004e
:020000040000fa
:0400e800c80200004a
:020000040000fa
:0400ec00c802000046
:020000040000fa
:0400f000c802000042
:020000040000fa
:0400f400c80200003e
:020000040000fa
:0400f800c80200003a
:020000040000fa
:0400fc00c802000036
:020000040000fa
:04010000c802000031
:020000040000fa
:04010400c80200002d
:020000040000fa
:04010800c802000029
:020000040000fa
:04010c00c802000025
:020000040000fa
:04011000c802000021
:020000040000fa
:04011400c80200001d
:020000040000fa
:04011800c802000019
:020000040000fa
:04011c00c802000015
:020000040000fa
:04012000c802000011
:020000040000fa
:04012400c80200000d
:020000040000fa
:04012800c802000009
:020000040000fa
:04012c00c802000005
:020000040000fa
:04013000c802000001
:020000040000fa
:04013400c8020000fd
:020000040000fa
:04013800c8020000f9
:020000040000fa
:04013c00c8020000f5
:020000040000fa
:04014000c8020000f1
:020000040000fa
:04014400c8020000ed
:020000040000fa
:04014800c8020000e9
:020000040000fa
:04014c00c8020000e5
:020000040000fa
:04015000c8020000e1
:020000040000fa
:04015400c8020000dd
:020000040000fa
:04015800c8020000d9
:020000040000fa
:04015c00c8020000d5
:020000040000fa
:04016000c8020000d1
:020000040000fa
:04016400c8020000cd
:020000040000fa
:04020800c802000028
:020000040000fa
:04020c00c802000024
:020000040000fa
:04021000c802000020
:020000040000fa
:04021400c80200001c
:020000040000fa
:04021800c802000018
:020000040000fa
:04021c00c802000014
:020000040000fa
:04022000c802000010
:020000040000fa
:04022400c80200000c
:020000040000fa
:04022800c802000008
:020000040000fa
:04022c00c802000004
:020000040000fa
:04023000c802000000
:020000040000fa
:04023400c8020000fc
:020000040000fa
:04023800c8020000f8
:020000040000fa
:04023c00c8020000f4
:020000040000fa
:04024000c8020000f0
:020000040000fa
:04024400c8020000ec
:020000040000fa
:04024800c8020000e8
:020000040000fa
:04024c00c8020000e4
:020000040000fa
:04025000c8020000e0
:020000040000fa
:04025400c8020000dc
:020000040000fa
:04025800c8020000d8
:020000040000fa
:04025c00c8020000d4
:020000040000fa
:04026000c8020000d0
:020000040000fa
:04026400c8020000cc
:020000040000fa
:04026800c8020000c8
:020000040000fa
:04026c00c8020000c4
:020000040000fa
:04027000c8020000c0
:020000040000fa
:04027400c8020000bc
:020000040000fa
:04027800c8020000b8
:020000040000fa
:04027c00c8020000b4
:020000040000fa
:04028000c8020000b0
:020000040000fa
:04028400c8020000ac
:020000040000fa
:04028800c8020000a8
:020000040000fa
:04028c00c8020000a4
:020000040000fa
:04029000c8020000a0
:020000040000fa
:04029400c80200009c
:020000040000fa
:04029800c802000098
:020000040000fa
:04029c00c802000094
:020000040000fa
:0402a000c802000090
:020000040000fa
:0402a400c80200008c
:020000040000fa
:0402a800c802000088
:020000040000fa
:0402ac00c802000084
:020000040000fa
:0402b000c802000080
:020000040000fa
:0402b400c80200007c
:020000040000fa
:0402b800c802000078
:020000040000fa
:0402bc00c802000074
:020000040000fa
:0402c000c802000070
:020000040000fa
:0402c400c80200006c
:020000040000fa
:0402c800c802000068
:020000040000fa
:0402cc00c802000064
:020000040000fa
:0402d000c802000060
:020000040000fa
:0402d400c80200005c
:020000040000fa
:0402d800c802000058
:020000040000fa
:0402dc00c802000054
:020000040000fa
:0402e000c802000050
:020000040000fa
:0402e400c80200004c
:020000040000fa
:0402e800c802000048
:020000040000fa
:0402ec00c802000044
:020000040000fa
:0402f000c802000040
:020000040000fa
:0402f400c80200003c
:020000040000fa
:0402f800c802000038
:020000040000fa
:0402fc00c802000034
:020000040000fa
:04030000c80200002f
:020000040000fa
:04030400c80200002b
:020000040000fa
:04030800c802000027
:020000040000fa
:04030c00c802000023
:020000040000fa
:04031000c80200001f
:020000040000fa
:04031400c80200001b
:020000040000fa
:04031800c802000017
:020000040000fa
:04031c00c802000013
:020000040000fa
:04032000c80200000f
:020000040000fa
:04032400c80200000b
:020000040000fa
:04032800c802000007
:020000040000fa
:04032c00c802000003
:020000040000fa
:04033000c8020000ff
:020000040000fa
:04033400c8020000fb
:020000040000fa
:04033800c8020000f7
:020000040000fa
:04033c00c8020000f3
:020000040000fa
:04034000c8020000ef
:020000040000fa
:04034400c8020000eb
:020000040000fa
:04034800c8020000e7
:020000040000fa
:04034c00c8020000e3
:020000040000fa
:04035000c8020000df
:020000040000fa
:04035400c8020000db
:020000040000fa
:04035800c8020000d7
:020000040000fa
:04035c00c8020000d3
:020000040000fa
:04036000c8020000cf
:020000040000fa
:04036400c8020000cb
:020000040000fa
:10040000ef8b20000e7f24000e018800000000000a
:10041000000020000000e000020032000001200087
:1004200020028800140007005b0007000000e000c5
:1004300003003a00e0bb200001002000020037006a
:100440000000200001002000810f70000100320038
:1004500014000700000020000000e000020032004d
:100460000000020000000000e007020000000000a1
:100470000040da000000fe004440a90020012000f6
:100480000000e0000300320000002000a00188000e
:100490004440a800000006008a1f78008b1f7800e7
:1004a0000000060091018800800478000000eb0045
:1004b0001a003700e284440032a0b4009905ba0063
:1004c000e284440032a0b4009906ba00e2844400f9
:1004d00032a0b4000006eb00476fde00fd07b2005b
:1004e000636ce10003003a00ebff07000000eb0043
:1004f0000a003700606ce10004003a00005deb0088
:100500008b05e900fdff3e00040037006168e10053
:10051000010032000086eb000b00070019c7ba008b
:100520001905ba000e04e00003003a000a00e000da
:10053000e0ff3a0000000600fe07b2009e018800be
:100540008a047800f5ff3700395dba008b05e900b1
:100550000c003200295dba008b05e900080032006a
:100560000c00e00003003a00e284440032a0b40032
:10057000f5ff370019ddba008b05e900faff3a00f4
:100580008904e800e184440032a0b40000000600c1
:100590000040da000000fe000000050003f0a200a9
:1005a000889fbe008a9fbe008c1f7800f60007005f
:1005b000fd0033006450e1004f0032006420e10090
:1005c0005200320003826c0007003b000905d00096
:1005d0000306d000820f54000c065d0002003900b3
:1005e00002003200890178000306780085825500f8
:1005f00004003d000003fd008103fd008502ea00c8
:100600008b854200840f720002003b0060001000e6
:10061000e08018006011b8000005eb007a28e100c6
:100620000a00390006007800c75ddd00f707b20058
:10063000878075002d003700828171000a017800e3
:10064000610560008180d1000080d3008502e9004f
:10065000f9ff3b00060440008784480002003b008d
:1006600060041400e0841c000988a3000700320025
:100670008a81710082817100610164008904d10066
:100680000884d3008b05e800170037000978a30021
:1006900013003a000b00e000130034008b05e90062
:1006a0000804440089844c000a4474000978a300bb
:1006b0000d003a000b00e000070034008b05e90054
:1006c0000804440089844c0001003a000b0020001b
:1006d0000978a300f7ff32000001eb0002003700a9
:1006e000828171000a0178006c0007000cf0a700fd
:1006f00001f0a000b50037006420e10002003a00dc
:10070000838f6c00b50033000801be000200be00fc
:10071000ae003700889fbe008a9fbe008c1f780005
:1007200099000700a000330003866c006450e100cc
:100730002e0032006420e100330032006150e100fd
:100740002f0032006120e100310032008585550024
:10075000eb07b00009002000080420000500370066
:100760000804440089844c000a0031000603430059
:1007700087834b000001530081815b00f8ff330049
:100780000203be000800a0000804440089844c0055
:10079000f6ff3900c639dd00830173000100320025
:1007a000130020008904d1000884d3000998a30015
:1007b000050032000800a7000300a0008904d10052
:1007c0000884d3008b05e8008904d1000884d30095
:1007d0000001eb000281d2003000070001f0a1000f
:1007e0000cf0a70001f0a000780037006420e100c1
:1007f0007a0032000801be000200be00f7ff370099
:100800006120e100750032006000b800f3ff37009e
:100810000000200001f82700f0ff37000001be00b3
:10082000440007000470a70003f0a10003f8a30030
:1008300013003a006509b1001000320009003500cc
:100840006928e100020035000100280000000500d1
:1008500000004000818048008502e900fcff3a006a
:1008600000000600f88f4200050035008100d1002d
:100870000080d3008502e800fcff3a00000006007b
:100880008000eb00000005004f89de008201780047
:100890008b0037006011b8009900370081002000fc
:1008a000618055000b003d000b00200061fe2f0011
:1008b0000100e1001d0034008281710061016400cb
:1008c0008904d1000884d3000000e800faff3a0050
:1008d00071002000610064000300700002006000ed
:1008e0000900320061044400e0844c000988a5003e
:1008f000050032008b05e8006808e10002003a00bc
:100900008904d1000884d300f20f20000258e100ce
:1009100005003d00c75ddd00f907b2008980750064
:1009200008007800000006000bf827008b00780014
:1009300000000500c70ade00f107b200f50fb200a3
:1009400008003200e1cf4200020032000170a00036
:1009500024000500810f700001003200040805002a
:1009600044000500810f700002003a0014000500e9
:100970008502e9000000400081c04800fcff3b0008
:100980000170a000240005000004be00e9ff07007c
:100990000003be000405be000200be00e5ff070024
:1009a000844f7500000006000200be006450e100a4
:1009b000050036006420e100020036000968a3004b
:1009c00001003a000800be000160a0004f06780058
:1009d0004f05be004f04be0000000600f0ff2f00d0
:1009e000f1ff2700f9ff3700889fbe008a9fbe00f5
:1009f0008c1f7800e4ff0700ebff330003866c00d8
:100a00006450e100240032006420e100270032003d
:100a10006150e100220032006120e100210032003b
:100a20008b854200eb07b1000134b800003ab800f2
:100a30000804420089844a00013ab8000030b80036
:100a40008880400009014a00040033000000400093
:100a500081804800020149008b05e900c909dd00d9
:100a6000830170000100320013002000c814de0072
:100a70004814dd004709de001200b200c808de009d
:100a80000884700085ff070001f0a1000cf0a700aa
:100a900001f0a000cdff37006120e100cfff320060
:100aa0000801be000200be00f7ff37006150e10000
:100ab000fcff3a00c9ff37000001eb003f003700a0
:100ac000881f7800030478000300e00007003d0061
:100ad00060001000e080180060011900e08119003a
:100ae00002003b0001f02d00030037000400070066
:100af00008f0a70001f0a0004f04780000000600f5
:100b0000889fbe008a9fbe000082700004027100b0
:100b100004827100260032000004be000200be0004
:100b20006011b8006b092000950220000182cf00ff
:100b30000a0039000541b1000082cf0007003900ea
:100b40000541b1000982cf00040039000541b10020
:100b50000882cf00010039000541b1000542520072
:100b6000120032000a003b008281710061016400c2
:100b70008100d1000080d3008984d3000884d30091
:100b80008b05e8000442e800f7ff3a000700370051
:100b90000804440089844c0000004800818048001b
:100ba0008b05e9000442e900f9ff3a003bff07002a
:100bb0004f05be004f04be0000000600889fbe0027
:100bc0008a9fbe008c9fbe00820578000004be0094
:100bd00058ff07000800be006420e100070039004c
:100be00002003a00f1ff2700f0ff2f000160a00093
:100bf0001202200002408800550037006120e10009
:100c000003003a000b00a70001f823005000370052
:100c100001f0a100020021009364240050000700ad
:100c20000800be0004003500b2fd2000930c240033
:100c30006e0007000004be000005eb000b00a600dc
:100c40004f0dde0001f0a1000004be0032982f001d
:100c500023ea230064ff07000001eb0003f02300f8
:100c60000b00a70003f823004dfe07003e0007001d
:100c70000000a7000a00a20003ff07000b00e0002d
:100c8000030032000200200003f0230043fe0700af
:100c900001f0a2000006be00020020009304240020
:100ca00051ff07000801be003dfe0700809fbe0007
:100cb0000c00be0022a22a00d3a723004aff07008f
:100cc0004f01be0036fe07000004be0001f0a10087
:100cd0000200200003982300210007000800be0046
:100ce000190035000001be003fff07000006be00ee
:100cf000b2c52900e36223003bff070022222b003c
:100d0000f3942b0026fe07000c01be0036ff0700ff
:100d1000e273280083c0230021fe07000c01be00ff
:100d200031ff070042aa2a00a3e22b001cfe0700a5
:100d30000c01be002cff07000801be002aff0700bf
:100d40000801be0016fe07000a00a70001f0a2007d
:100d50004f06be004f05be004f04be000000060057
:100d600014002000720037000001be00f1fe0700f1
:100d70000470a70003f0a1006509b100160032005d
:100d80000d0035006828e10006003500f0ff2f0057
:100d9000f1ff27000300e00013003b0001002800e2
:100da0000000050000004000818048008502e90045
:100db000fcff3a0008003700f88f420002003c00b8
:100dc0008000eb00000005008100d1000080d3000e
:100dd0008502e800fcff3a000300e00002003b004f
:100de00060001000e08018000000060004002000f1
:100df00000003700889fbe008a9fbe008c1f7800cd
:100e00004f26dd00e0fe0700e7fe33006120e10031
:100e1000430032006250e10041003e003e003900d4
:100e20006420e1003c003200058255000f003b00c9
:100e30000402e80038003a00800f5300818f5b0005
:100e4000350034000800be0003f0a10001f0a60048
:100e500003f0a0000cf0a700d1fd0700dbfe370077
:100e60000603430087834b000c46460000055300f1
:100e700081855b00020033000a03be000c00a00065
:100e80000402e900f6ff3b008505780006024300f6
:100e900087824b0004003a006000b80009f0a70008
:100ea00001f0a000c9fe37000002520081825a0002
:100eb0000704e000040033000603430087834b006f
:100ec0008b05e900faff3700090578000604be002b
:100ed0000203be006011b80070fe0700e00f520070
:100ee000e08f5a000700350002003c000c08a30008
:100ef000040032000601be0003f0a0000cf0a700c1
:100f0000a7fd07000a85680001f0a1000af0a7000c
:100f100001f0a000adfe37000800be00abfe3700b8
:100f2000100220000cf0a60000408800abfe370045
:100f3000889fbe008a9fbe00841f780092fe070033
:100f40004f00780011003300f0ff2f00838f6c00fa
:100f500006003b00040565000a00a70008003700f2
:100f600009f0a6001000200008003700820f54008e
:100f7000838f5c00030039001000200001003e0058
:100f80000000200009f0a7000000ea004f05be00a5
:0c0f90004f04be000000e000000006005e
:020000040000fa
:100f9c000208000062080000320800005608000039
:100fac00260800004a0800001a0800003e0800004d
:040fbc000e0800001b
:020000040000fa
:100fc0000c00fa00c2010700c9e2a90020002000bd
:100fd00088010700f0f321007008880021358000a7
:100fe00000fe2f00008060006000b3002035880004
:100ff00031368000f00f2e0080806000003020002d
:1010000001007000303688000111800090ff2f0031
:1010100000806000001188002002a9002062a90061
:10102000a00220004011880021e2a8002342a8006d
:10103000030037000000000001003700000000003e
:1010400010118000610060000000e000f9ff320034
:1010500031118000110798009e0090003007200099
:10106000808f5000f5ff3a000a21ef0013e1a8003d
:101070000000eb00000f78003c003700000000008b
:10108000810107000000e000fdff320060168000d3
:101090000080ea004f00de00004078000080fb0086
:1010a0004f00dd006116800001f0a100010070001a
:1010b000601688001e0078008000eb00f5fd070038
:1010c00052f62c00b388230047fe07002007980043
:1010d00031079800f26e2b00035b24002e00900075
:1010e000be00900040fe070073fe070002002000d3
:1010f00003f823002afd070002002800f33f240024
:1011000039fe0700c5fd0700100798001e0090007b
:101110001c000700cf80de00dbfd070040079800c1
:1011200051079800000000001111800000202000ed
:10113000008060000000e000fbff3a000200200099
:10114000034824004e009000de00900071fd07006f
:1011500002002000e32f240011fd0700affd07006f
:1011600000007800201188001e0fe800703e20006b
:101170009e007800808f5000c0ff360013e1a90068
:10118000afff37001400fa00881f7800100f980096
:10119000e17c280008000900311f78002e01b10011
:1011a0001e0890008000eb005040880061408800dd
:1011b0000e089000680440008e027800e48a200047
:1011c000e3892000e2882000e1872000e0862000fb
:1011d0000b000700cf80de00008cbe000e00780000
:1011e000dd0007000e089000640040001000be0003
:1011f000000078004f0478000080fa00000006002c
:101200001800fa00889fbe008a9fbe008c9fbe0017
:1012100010079800210798003207980043079800ac
:1012200054079800650798000000eb00000f780055
:10123000bb0037001e0078000000e80000004000fe
:10124000ee00900000804000100078006800400030
:10125000700798001e00780000004000ee0090002b
:101260000080400010007800680040001005be00bb
:101270001e007800cf00de00008040000080d1001a
:101280004200dd00de009000008040001002be0041
:101290001e00780000004000ee009000008040003a
:1012a000100078001001be0002a8b900000078000c
:1012b000049bb90086007800010040000223b800ba
:1012c00007004000800378001e007800cf00de0099
:1012d000008040000080d1004200dd00ce00900080
:1012e000008040001004be001e0078000000400096
:1012f000ee00900000804000100078006400400084
:101300001001be0002c8b900000278000898b900b8
:1013100000007800000242000240b80001024200d2
:101320008400780006004000878048000a044000de
:101330008b8448001e007800cf00de000080400053
:101340000080d1004200dd00ae009000008040002f
:101350001002be001e0078000000e80000004000ff
:10136000ee00900000804000100078006400400013
:101370001000be00e00f5000e08f580002003d005a
:10138000f03fb0000180b0004609dd004a06de00f3
:101390000c067100ca8ede000c00be0000a9b90068
:1013a00002017800048bb900860178000301410036
:1013b0000020b800010141008200780000045400c0
:1013c00081845c001e007800cf00de0000804000b9
:1013d0000080d1004200dd00be009000008040008f
:1013e0001002be001e0078000000e800000040006f
:1013f000ee00900000804000100078001000be0059
:10140000e00f5000e08f580002003d00f03fb000b8
:101410000180b0004609dd00ca01de0083017100d1
:10142000030f9800ca89de00130f98000e08900081
:101430009e08900000a9b90002017800048bb90051
:1014400086017800030141000020b800010141003d
:10145000820078000000540081805c007e019000d2
:101460000089be001e0078000080e80000004000f7
:10147000ee009000008040001000780068044000fa
:101480001e007800cf00de00008040000080d10008
:101490004200dd009e009000008040001001be0070
:1014a0001e0078000000e80000004000ee00900000
:1014b0000080400010007800680040001000be006e
:1014c000009ab90004027800028bb9008602780005
:1014d000050242000010b8000102420084007800ba
:1014e000e00f5000e08f580004003d00f2ff2f0095
:1014f000f30020000000410081804900c489de0023
:10150000230f98004f89de00320f98002e089000bc
:10151000be089000008cbe001e0fe8001e0fe80001
:101520001e007800e70f500042ff34006e0090006c
:101530007000400010007800680040001000be00fd
:10154000000078004f06be004f05be004f04be00ed
:101550000080fa00000006000600fa00200798004c
:101560000000eb00000f78001d0037000000eb00ca
:1015700010079800160037001e0078000000400099
:10158000ae00900000804000900078001e009000a7
:101590004200dd00008140001e0078000000400095
:1015a000ae00900000804000900078001e00900087
:1015b0000000e8004200dd00008040001000be0096
:1015c0000089be001e0090000000e800100798008f
:1015d0001e009000e10f5000e7ff34001e0fe800ee
:1015e0001e007800e80f5000e0ff34000080fa0091
:1015f000000006000200fa00000f78001e007800cc
:101600000000e000030032001e007800e20f5000ee
:1016100017003a002143a90030c0b30024e3b7000b
:101620002043a8003003a8002c03a9001e00780066
:1016300000407800674060000080fb0067006000a9
:101640004500dd0002198000f1f12f0081006100ea
:10165000010070000019880021e3a80000000000cc
:1016600000198000620060000000e000fcff320012
:101670000080fa00000006000000fa002023a90004
:101680000080fa00000006000000fa000019800047
:1016900000407800614060000080fb000080fa009c
:1016a000000006000000fa000019800061006000e0
:1016b0000000e000030032002003a90000188000b1
:1016c00001003700000028000080fa00000006003a
:1016d0000000fa00f0032000303a8800213a800030
:1016e00000fe2f00008060000000a000203a88006b
:1016f000213a8000f0f32f0000806000203a88003b
:101700001200200080072000a1092000337420006f
:10171000804978008149780082497800103a800039
:10172000000178000200a000600420007105200084
:10173000237420008049780081497800824978002c
:1017400000000000113a8000000027008080600047
:1017500000002100808f5000faff3a0000000000d6
:10176000113a800000022000008060000000e000cc
:0c177000fbff32000080fa0000000600c1
:020000040000fa
:10177c006e08000050000000020000000200000093
:10178c00000200000000170000000000170000001d
:10179c00009ef800ffff9a00f8ffff009af8ff0088
:1017ac00ff91f800fffff30003000000f3030000bb
:1017bc0000fa03000000fa0003000000000800001b
:1017cc000000080000000000f8ffff0000f8ff0018
:1017dc00ff000400000000000400000000040000f2
:1017ec000000040000000000020800006c00000073
:1017fc0000000000000800000200000000000000d3
:04180c0000000000d8
:020000040000fa
:0200000401f009
:04000000ffff0000fe
:020000040000fa
:0200000401f009
:04000400ffff0000fa
:020000040000fa
:0200000401f009
:04000800ffff0000f6
:020000040000fa
:0200000401f009
:04000c0000000000f0
:020000040000fa
:0200000401f009
:040010006700000085
:020000040000fa
:0200000401f009
:040014005f00000089
:020000040000fa
:0200000401f009
:04001800f7000000ed
:020000040000fa
:0200000401f009
:04001c00dfff000002
:00000001FF
