:020000040000fa
:080000000002040000000000f2
:020000040000fa
:04000800c80200002a
:020000040000fa
:04000c00c802000026
:020000040000fa
:04001000c802000022
:020000040000fa
:04001400c80200001e
:020000040000fa
:04001800c80200001a
:020000040000fa
:04001c00c802000016
:020000040000fa
:04002000c802000012
:020000040000fa
:04002400c80200000e
:020000040000fa
:04002800c80200000a
:020000040000fa
:04002c00c802000006
:020000040000fa
:04003000c802000002
:020000040000fa
:04003400c8020000fe
:020000040000fa
:04003800c8020000fa
:020000040000fa
:04003c00c8020000f6
:020000040000fa
:04004000c8020000f2
:020000040000fa
:04004400c8020000ee
:020000040000fa
:04004800c8020000ea
:020000040000fa
:04004c00c8020000e6
:020000040000fa
:04005000c8020000e2
:020000040000fa
:04005400c8020000de
:020000040000fa
:04005800c8020000da
:020000040000fa
:04005c00c8020000d6
:020000040000fa
:04006000c8020000d2
:020000040000fa
:04006400c8020000ce
:020000040000fa
:04006800c8020000ca
:020000040000fa
:04006c00c8020000c6
:020000040000fa
:04007000c8020000c2
:020000040000fa
:04007400c8020000be
:020000040000fa
:04007800c8020000ba
:020000040000fa
:04007c00c8020000b6
:020000040000fa
:04008000c8020000b2
:020000040000fa
:04008400c8020000ae
:020000040000fa
:04008800c8020000aa
:020000040000fa
:04008c00c8020000a6
:020000040000fa
:04009000c8020000a2
:020000040000fa
:04009400c80200009e
:020000040000fa
:04009800c80200009a
:020000040000fa
:04009c00c802000096
:020000040000fa
:0400a000c802000092
:020000040000fa
:0400a400c80200008e
:020000040000fa
:0400a800c80200008a
:020000040000fa
:0400ac00c802000086
:020000040000fa
:0400b000c802000082
:020000040000fa
:0400b400c80200007e
:020000040000fa
:0400b800c80200007a
:020000040000fa
:0400bc00c802000076
:020000040000fa
:0400c000c802000072
:020000040000fa
:0400c400c80200006e
:020000040000fa
:0400c800c80200006a
:020000040000fa
:0400cc00c802000066
:020000040000fa
:0400d000c802000062
:020000040000fa
:0400d400c80200005e
:020000040000fa
:0400d800c80200005a
:020000040000fa
:0400dc00c802000056
:020000040000fa
:0400e000c802000052
:020000040000fa
:0400e400c80200004e
:020000040000fa
:0400e800c80200004a
:020000040000fa
:0400ec00c802000046
:020000040000fa
:0400f000c802000042
:020000040000fa
:0400f400c80200003e
:020000040000fa
:0400f800c80200003a
:020000040000fa
:0400fc00c802000036
:020000040000fa
:04010000c802000031
:020000040000fa
:04010400c80200002d
:020000040000fa
:04010800c802000029
:020000040000fa
:04010c00c802000025
:020000040000fa
:04011000c802000021
:020000040000fa
:04011400c80200001d
:020000040000fa
:04011800c802000019
:020000040000fa
:04011c00c802000015
:020000040000fa
:04012000c802000011
:020000040000fa
:04012400c80200000d
:020000040000fa
:04012800c802000009
:020000040000fa
:04012c00c802000005
:020000040000fa
:04013000c802000001
:020000040000fa
:04013400c8020000fd
:020000040000fa
:04013800c8020000f9
:020000040000fa
:04013c00c8020000f5
:020000040000fa
:04014000c8020000f1
:020000040000fa
:04014400c8020000ed
:020000040000fa
:04014800c8020000e9
:020000040000fa
:04014c00c8020000e5
:020000040000fa
:04015000c8020000e1
:020000040000fa
:04015400c8020000dd
:020000040000fa
:04015800c8020000d9
:020000040000fa
:04015c00c8020000d5
:020000040000fa
:04016000c8020000d1
:020000040000fa
:04016400c8020000cd
:020000040000fa
:04020800c802000028
:020000040000fa
:04020c00c802000024
:020000040000fa
:04021000c802000020
:020000040000fa
:04021400c80200001c
:020000040000fa
:04021800c802000018
:020000040000fa
:04021c00c802000014
:020000040000fa
:04022000c802000010
:020000040000fa
:04022400c80200000c
:020000040000fa
:04022800c802000008
:020000040000fa
:04022c00c802000004
:020000040000fa
:04023000c802000000
:020000040000fa
:04023400c8020000fc
:020000040000fa
:04023800c8020000f8
:020000040000fa
:04023c00c8020000f4
:020000040000fa
:04024000c8020000f0
:020000040000fa
:04024400c8020000ec
:020000040000fa
:04024800c8020000e8
:020000040000fa
:04024c00c8020000e4
:020000040000fa
:04025000c8020000e0
:020000040000fa
:04025400c8020000dc
:020000040000fa
:04025800c8020000d8
:020000040000fa
:04025c00c8020000d4
:020000040000fa
:04026000c8020000d0
:020000040000fa
:04026400c8020000cc
:020000040000fa
:04026800c8020000c8
:020000040000fa
:04026c00c8020000c4
:020000040000fa
:04027000c8020000c0
:020000040000fa
:04027400c8020000bc
:020000040000fa
:04027800c8020000b8
:020000040000fa
:04027c00c8020000b4
:020000040000fa
:04028000c8020000b0
:020000040000fa
:04028400c8020000ac
:020000040000fa
:04028800c8020000a8
:020000040000fa
:04028c00c8020000a4
:020000040000fa
:04029000c8020000a0
:020000040000fa
:04029400c80200009c
:020000040000fa
:04029800c802000098
:020000040000fa
:04029c00c802000094
:020000040000fa
:0402a000c802000090
:020000040000fa
:0402a400c80200008c
:020000040000fa
:0402a800c802000088
:020000040000fa
:0402ac00c802000084
:020000040000fa
:0402b000c802000080
:020000040000fa
:0402b400c80200007c
:020000040000fa
:0402b800c802000078
:020000040000fa
:0402bc00c802000074
:020000040000fa
:0402c000c802000070
:020000040000fa
:0402c400c80200006c
:020000040000fa
:0402c800c802000068
:020000040000fa
:0402cc00c802000064
:020000040000fa
:0402d000c802000060
:020000040000fa
:0402d400c80200005c
:020000040000fa
:0402d800c802000058
:020000040000fa
:0402dc00c802000054
:020000040000fa
:0402e000c802000050
:020000040000fa
:0402e400c80200004c
:020000040000fa
:0402e800c802000048
:020000040000fa
:0402ec00c802000044
:020000040000fa
:0402f000c802000040
:020000040000fa
:0402f400c80200003c
:020000040000fa
:0402f800c802000038
:020000040000fa
:0402fc00c802000034
:020000040000fa
:04030000c80200002f
:020000040000fa
:04030400c80200002b
:020000040000fa
:04030800c802000027
:020000040000fa
:04030c00c802000023
:020000040000fa
:04031000c80200001f
:020000040000fa
:04031400c80200001b
:020000040000fa
:04031800c802000017
:020000040000fa
:04031c00c802000013
:020000040000fa
:04032000c80200000f
:020000040000fa
:04032400c80200000b
:020000040000fa
:04032800c802000007
:020000040000fa
:04032c00c802000003
:020000040000fa
:04033000c8020000ff
:020000040000fa
:04033400c8020000fb
:020000040000fa
:04033800c8020000f7
:020000040000fa
:04033c00c8020000f3
:020000040000fa
:04034000c8020000ef
:020000040000fa
:04034400c8020000eb
:020000040000fa
:04034800c8020000e7
:020000040000fa
:04034c00c8020000e3
:020000040000fa
:04035000c8020000df
:020000040000fa
:04035400c8020000db
:020000040000fa
:04035800c8020000d7
:020000040000fa
:04035c00c8020000d3
:020000040000fa
:04036000c8020000cf
:020000040000fa
:04036400c8020000cb
:020000040000fa
:100400006f9d20000e7f24000e0188000000000078
:10041000000020000000e000020032000001200087
:1004200020028800140007005b0007000000e000c5
:1004300003003a0020ed20000100200002003700f8
:100440000000200001002000810f70000100320038
:1004500014000700000020000000e000020032004d
:100460000000020000000000da05020000000000a9
:100470000040da000000fe004440a9000000200017
:100480000000e0000300320000002000a00188000e
:100490004440a800000006008a1f78008b1f7800e7
:1004a0000000060091018800800478000000eb0045
:1004b0001a003700e284440032a0b4009905ba0063
:1004c000e284440032a0b4009906ba00e2844400f9
:1004d00032a0b4000006eb00476fde00fd07b2005b
:1004e000636ce10003003a00ebff07000000eb0043
:1004f0000a003700606ce10004003a00005deb0088
:100500008b05e900fdff3e00040037006168e10053
:10051000010032000086eb000b00070019c7ba008b
:100520001905ba000e04e00003003a000a00e000da
:10053000e0ff3a0000000600fe07b2009e018800be
:100540008a047800f5ff3700395dba008b05e900b1
:100550000c003200295dba008b05e900080032006a
:100560000c00e00003003a00e284440032a0b40032
:10057000f5ff370019ddba008b05e900faff3a00f4
:100580008904e800e184440032a0b40000000600c1
:100590000040da000000fe00000005000001be007f
:1005a000190007000470a70003f0a10003f8a300de
:1005b00013003a006509b10010003200090035004f
:1005c0006928e10002003500010028000000050054
:1005d00000004000818048008502e900fcff3a00ed
:1005e00000000600f88f4200050035008100d100b0
:1005f0000080d3008502e800fcff3a0000000600fe
:100600008000eb0000000500c70ade00f107b20021
:10061000f50fb20008003200e1cf420002003200c4
:100620000170a00024000500810f7000010032005d
:100630000408050044000500810f700002003a0024
:10064000140005008502e9000000400081c0480058
:10065000fcff3b000170a00024000500889fbe0045
:100660008a9fbe0030044200b0844a0030054b002f
:1006700090854b006000b1000898be000a90be0053
:100680000440e10005c8e10006d0e10007d8e10020
:1006900002003100680040001008e8004f05be006d
:1006a0004f04be0000000600889fbe008a9fbe0067
:1006b0003004be002005be000418540005985c00fc
:1006c00006185d0007985d00110020000440e1005d
:1006d00005c8e10006d0e10007d8e10001003900bb
:1006e0008000eb00108810004f05be004f04be00d4
:1006f00000000600f4874700889fbe008a9fbe0066
:100700008c9fbe008e1f7800d0b79f00e1b79f007e
:10071000f2b79f0083bf9f000605be000404be0021
:10072000cfae97000000eb00c0b79f00b0b79f00ae
:10073000a0b79f0090b79f0080b79f000006780089
:100740004fb09700000140000000e00006003d00af
:100750003c0007000f074700450007000f0040005e
:10076000beff070005003700360007000f074700ef
:100770003f0007000f004000cbff07004fb7970076
:100780000e00e0000c0035005fb29700efb297005a
:100790007fb397008fbb970010002000010020005e
:1007a0006011b800000272008182720002037300bf
:1007b000838373001c0007000c06e800010420007e
:1007c000810f5600deff3a000e00e00005003d00fc
:1007d0000802be000a03be0000fe2f000f0040000a
:1007e0009eff07000d00e00005003a000fb29700e1
:1007f0009fb297002fb39700bfb397000a0007007e
:100800005fb09700efb097007fb197008fb9970066
:100810004f0778004f06be004f05be004f04be00d4
:100820004f01b100000006000100070000000600b3
:1008300094b79f00a5b79f00b6b79f00c7b79f00aa
:10084000000006009fb097004f08de000201700014
:10085000a2b79f000fb097004f01de0081804000db
:100860008100710091b79f000efe2f00000006006e
:10087000de0078004f09de0000004000000071003b
:1008800080b79f006fa897004f01de008180400075
:10089000010f71000e0007004f3ade00000040001b
:1008a00004007000e0af9f0009000700040242004e
:1008b00085824a0006034b0087834b00dcff07005c
:1008c0000802be000a03be0000fe2f000000060062
:1008d0001fb29700afb297003fb39700cfb3970016
:1008e00000000600881f780018002000881f78008c
:1008f00080ff07008f87e9004f04780000000600a2
:10090000801feb007bff07008f87e90000000600d7
:10091000889fbe008a9fbe00e00f5000e08f580005
:10092000e00f5900e08f59000c003d006044b80012
:100930006055b8000000540081805c0002015d0039
:1009400083815d00180020001500070008003d00ad
:10095000180007000004eb00050037000004eb005e
:100960000f00070002003d001200070018002000e1
:10097000dcff07000800e000060032006022b8003b
:100980006033b8000000520081805a0002015b0011
:1009900083815b004f05be004f04be0000000600cf
:1009a000e00f5200e08f5a00e00f5b00e08f5b0029
:1009b000000006006044b8006055b800040254000e
:1009c00085825c0006035d0087835d0000000600f1
:1009d000889fbe008a9fbe008c1f7800e00f5000e9
:1009e000e08f5800e00f5900e08f59000d003d00e6
:1009f0006044b8006055b8000000540081805c007d
:100a000002015d0083815d001c0020000820e100e0
:100a100009a8e1000ab0e1000bb8e1000d003d00bb
:100a2000080037000006eb00e00f5200e08f5a008c
:100a3000e00f5b00e08f5b0006003d006044b80003
:100a40006055b8000402540085825c0006035d0016
:100a500087835d00aaff07000c00e000060032005b
:100a60006022b8006033b8000000520081805a0054
:100a700002015b0083815b004f0678004f05be00da
:100a80004f04be0000000600889fbe008a9fbe0083
:100a90008c1f78000006eb00e00f5000e08f58003c
:100aa000e00f5900e08f590007003d006044b80096
:100ab0006055b8000000540081805c0002015d00b8
:100ac00083815d001c002000e00f5200e08f5a007f
:100ad000e00f5b00e08f5b0007003d006044b80062
:100ae0006055b8000402540085825c0006035d0076
:100af00087835d000c00a2000c0007000c00e000e2
:100b0000060032006022b8006033b80000005200d6
:100b100081805a0002015b0083815b004f067800f0
:100b20004f05be004f04be0000000600889fbe00b7
:100b30008a9fbe008c9fbe000404b8000506b80062
:100b40008904460060854e000606b8000a05460086
:100b5000e0854e000706b8008b054600040eb8007d
:100b6000890446000a854e00e0854d00050eb80058
:100b70000a0546008b854e00060eb8008b05460020
:100b80000416b8000a0546008b854e000516b8000d
:100b90008b054600041eb8008b0546000800be0009
:100ba0000a01be004f06be004f05be004f04be0046
:040bb000000006003b
:020000040000fa
:100bb4002000fa000000eb00000f78008000eb003a
:100bc4000e80e800010878007105200064004700e9
:100bd40001087800017d20006600470001087800c4
:100be400710520006800470001087800d104200046
:100bf4006a00470001087800d10420006c00470017
:100c0400010878008000eb006e00470001087800be
:100c14008000eb0070004700010878008000eb00c2
:100c24007200470001087800e10f200074004700bb
:100c340001087800d10f20007600470001087800f1
:100c440000002000c1372400780147000089be005d
:100c5400c10f20007c00470001087800ca04070087
:100c6400c862a900c922a900c942a900c962a90091
:100c7400c982a9000a21ef0013e1a8002000200086
:100c84008a040700a0a6200070088800213580008f
:100c940000fe2f00008060007000b3002035880043
:100ca4003136800000fe2f00008060003000b30069
:100cb400303688000111800090ff2f000080600012
:100cc400001188002002a9002062a900a0022000cf
:100cd4004011880021e2a8002342a8000100370047
:100ce4003011800010118000610060000000e000fd
:100cf400fbff3a0000000000910407000000e00040
:100d0400fdff320095040700000f780001802000e9
:100d14001e007800a70007001140800000408000fa
:100d240042802000ba020700314080002040800049
:100d340018030700800078007e004700010878004f
:100d44007e004700100078000000e00094003200ac
:100d54007e00470010007800c800de0068004700ed
:100d6400010878007e00470090007800f00f200012
:100d7400808060006400470001087800cc62a8000d
:100d84006600470010007800cf80de006109b900da
:100d940084a82300850320006033b80039ff0700ce
:100da400843e2000050020006033b800ccfe07001c
:100db4000000be009f040700cc62a9006800470041
:100dc400100078000000e00001003a00cd22a800e5
:100dd4006800470010007800e10f500001003a005d
:100de400cd42a8006800470010007800e20f5000d0
:100df40001003a00cd62a8006800470010007800a6
:100e0400e30f500002003a00cd82a8000100370031
:100e1400000000001111800000202000008060000c
:100e24000000e000fbff3a00740047001000780067
:100e34002011880000000000111180000020200013
:100e4400008060000000e000fbff3a0068004700fb
:100e540010007800201188000000000010118000ac
:100e6400610060000000e000fcff320031118000ee
:100e74006c004700010878006c004700900078007f
:100e84006800470010007800808f50002b003a0063
:100e9400000000001111800000202000008060008c
:100ea4000000e000fbff3a006400470010007800f7
:100eb4002011880000000000101180006100600013
:100ec4000000e000fcff3200311180006a0047009e
:100ed400010878006a004700900078006400470029
:100ee40010007800808f50000a003a0000000000d3
:100ef4001111800000202000008060000000e0004c
:100f0400fbff3a00760047001000780020118800ab
:100f1400160037000000000011118000002020009e
:100f2400008060000000e000fbff3a007200470010
:100f340010007800201188001b003700000000001a
:100f44001111800000202000008060000000e000fb
:100f5400fbff3a00780047001000be008efd07003a
:100f640000007800201188000f0037001011800065
:100f7400610060000000e000fcff32007c004700dc
:100f84009000780030118000808f500004003a00f7
:100f9400cd22a900cd42a900cd62a900cd82a9002d
:100fa4000000000054ff37000000eb000080fa004e
:100fb400000006001800fa00889fbe008a9fbe0049
:100fc4008c9fbe000e81e800000978006400470091
:100fd400010878000e80e800100078008000eb0023
:100fe40030438800414388000e80e80010007800f8
:100ff4008000eb0090468800a14688000000eb00ca
:10100400000f7800ea0037009e00e80031079800de
:101014001e0078006c00b90000007800e800400071
:10102400e0852000008040001000be004a0cdd0076
:10103400c604de00890474004a04dd009e007800c2
:101044004f08de00010040000080d100c200dd0036
:1010540060962000008040001002be001e00780050
:101064006c00b90000007800e4004000e085200036
:10107400008040001001be0002a8b90000037800ff
:101084000498b90000007800000343000220b8006f
:101094000103430086007800080440008984480066
:1010a4009e0078004f08de00010040000080d1005f
:1010b400c200dd0060972000008040001002be00e6
:1010c4001e0078006c00b90080007800e0852000e4
:1010d400008040001001be0002a8b900000378009f
:1010e4000498b90000007800000343000220b8000f
:1010f4000103430086007800080440008984480006
:101104009e0078004f08de00010040000080d100fe
:10111400c200dd0060942000008040001003be0087
:101124001e00e8006c00b90000007800e4004000f4
:10113400e0852000008040001000be00e00f500059
:10114400e08f580002003d00f03fb0000180b00085
:101154004609dd004a05de000a057100ca8dde007d
:101164000a01be0002b8b900000278000698b9006e
:1011740000007800000242000230b8000102420080
:10118400840078000004540081845c009e00780090
:101194004f08de00010040000080d100c200dd00e5
:1011a40060952000008040001003be001e00e8008f
:1011b4006c00b90080007800e085200000804000c9
:1011c4001000be00e00f5000e08f580002003d0008
:1011d400f03fb0000180b000c609dd004a06de0021
:1011e4000c867100ca8ede000c01be0002b8b90084
:1011f400000278000698b90000007800000242005e
:101204000230b8000102420084007800000154005a
:1012140081815c003e0290006c20b900800078005f
:1012240060862000008040000288be009e82e800a4
:101234001e007800cf00de00008040000080d10056
:10124400c200dd0060932000008040001003be0057
:101254001e00e8006c00b90000007800e8004000bf
:10126400e0852000008040001001be0002b8b900f3
:10127400000278000698b9000000780000024200dd
:101284000230b80001024200840078000001be0070
:10129400e00f5100e08f590004003d00f0ff2f00e3
:1012a400f10020000201400083814800c498de0060
:1012b400410798004f9ade00540798004e019000b1
:1012c400de0190006c28b900800078006086200060
:1012d400008040000288be001e0078006c00b90047
:1012e40000007800e4004000e08520000080400019
:1012f4001001be001e0078006c00b9008000780068
:10130400e0852000008040000288be001e007800b6
:101314006c00b90000007800e8004000e08520007f
:10132400008040001001be001e0078006c00b9006f
:101334008000780020862000008040000288be00e3
:101344001e02e8001e00e8006c00b90000007800ee
:10135400e4004000e0852000008040001001be0051
:101364006c20b90080007800e085200000804000f7
:101374000288be001e02e8001e00e8006c00b900ee
:1013840000007800e8004000e08520000080400074
:101394001001be006c20b900800078002086200077
:1013a400008040000288be001e0fe8001e0fe80007
:1013b4001e007800e70f500013ff34001046800031
:1013c40021468000f04588000146880030468000b0
:1013d4004146800010468800214688000000eb004a
:1013e400000f7800ed0037001e05e8001e007800ad
:1013f4006c00b90000007800e8004000a08c2000d8
:10140400008040001000be004a0cdd00c604de006f
:10141400890474004a04dd001e007800cf00de0059
:10142400008040000080d100c200dd00609b2000ed
:10143400008040001002be001e0078006c00b9005d
:1014440000007800e4004000a08c200000804000f0
:101454001000be0000a9b90002017800048bb90095
:1014640086017800030141000020b8000101410019
:101474008200780008044000898448001e00780037
:10148400cf00de00008040000080d100c200dd00fb
:10149400609c2000008040001002be001e00780006
:1014a4006c00b90080007800a08c2000008040000f
:1014b4001000be0000a9b90002017800048bb90035
:1014c40086017800030141000020b80001014100b9
:1014d4008200780008044000898448001e007800d7
:1014e400cf00de00008040000080d100c200dd009b
:1014f40060992000008040001002be001e00e80039
:101504006c00b90000007800e4004000a08c2000ca
:10151400008040001000be00e00f5000e08f580033
:1015240002003d00f03fb0000180b000c609dd00bc
:101534004a01de0002817100620798004a89de00d8
:10154400720798006e009000fe00900000a9b90098
:1015540002017800048bb900860178000301410080
:101564000020b8000101410082007800000454000a
:1015740081845c001e007800cf00de000080400003
:101584000080d100c200dd00609a2000008040008d
:101594001002be001e00e8006c00b9008000780054
:1015a400a08c2000008040001000be00e00f50001e
:1015b400e08f580002003d00f03fb0000180b00011
:1015c4004609dd00ca01de0083017100030f9800a3
:1015d400ca89de00130f98000e0890009e08900040
:1015e40000a9b90002017800048bb90086017800d3
:1015f400030141000020b80001014100820078008d
:101604000000540081805c006c51b90082017800b4
:10161400228d2000028141000089be001e84e80062
:101624001e007800cf00de00008040000080d10062
:10163400c200dd0060982000008040001001be0060
:101644001e00e8006c00b90000007800e8004000cb
:10165400a08c2000008040001000be00009ab90059
:1016640004027800028bb900860278000502420069
:101674000010b8000102420084007800e00f50001e
:10168400e08f580004003d00f2ff2f00f30020001b
:101694000000410081804900448ade00240f980044
:1016a4004f89de00320f98002e089000be0890008b
:1016b4006c41b90082017800228d20000281410032
:1016c4000089be001e0078006c00b900000078009c
:1016d400e4004000a08c2000008040001000be0008
:1016e4001e0178006c11b90082017800a28c2000e0
:1016f400028141000089be001e0078006c00b90020
:1017040000007800e8004000a08c20000080400029
:101714001000be001e0178006c11b900820178002f
:10172400e28c2000028141000089be001e01e80015
:101734001e00e8006c00b90000007800e4004000de
:10174400a08c2000008040001000be006c11b90085
:1017540082017800a28c2000028141000089be0031
:101764001e01e8001e00e8006c00b90000007800cb
:10177400e8004000a08c2000008040001000be0063
:101784006c11b90082017800e28c200002814100d2
:101794000089be001e0fe8001e0fe8001e0078003e
:1017a400e70f500010ff3400704980008149800029
:1017b400504988006149880090498000a14980000f
:1017c4007049880081498800304680004146800085
:1017d4008000780064004700100078000108780059
:1017e40064004700100078000081e8009049800000
:1017f400a149800000007800000978004f06be006f
:101804004f05be004f04be000080fa000000060031
:101814000a00fa00e40147008009780066004700e6
:10182400010878006800470002087800a00f200033
:10183400000f7800a10f20000e80e8000108780056
:101844004040800080004000208220000080400052
:10185400e4004700110878005040800080004000f8
:101864000084200000804000e60047001108780052
:101874004040800080004000208220000080400022
:101884009000780060408000808f50000600340093
:101894004040800080004000208220000080400002
:1018a4001000780060408800404080000000e8009c
:1018b4004040880040408000ef0f50000a00340090
:1018c4000828ef00604080009e0f500004003400a0
:1018d40010002000704088000c28ef000200370040
:1018e4000e28ef000c28ef005040800080004000dc
:1018f4000084200000804000900078008040800038
:10190400808f50000600340050408000800040006a
:10191400008420000080400010007800804088008f
:10192400504080000000e800504088005040800093
:10193400ef0f50000c0034000a28ef0081408000b3
:101944000e80e80010007800808f500004003400fe
:1019540010002000904088001028ef00020037009b
:101964001228ef001028ef00714080006800470043
:101974001000780001087800680047001000780023
:101984000080e80091408000010878000080fa009f
:10199400000006000800fa0064014700000978000e
:1019a40066004700010878000000eb00000f780093
:1019b40066004700100078000000e0000c003a00c8
:1019c40064004700100078000000e00004003a00c2
:1019d4008000eb000e80e800010878000f0037005b
:1019e400110020000e80e800010878000b00370089
:1019f40064004700100078000000e00004003a0092
:101a0400210020000e80e800010878000300370060
:101a1400310020000e80e80001087800a04080001a
:101a2400e20f50003d003200e20f500005003e007e
:101a34000000e00008003200e10f50001600320000
:101a4400c0003700e30f50006f003200e40f500075
:101a54009f003200bb0037000e80e80010007800c1
:101a6400e10f5000b9003a0010002000a0408800a7
:101a740010002000b040880010002000c040880002
:101a84001a28ef0090002000e04088001e28ef0094
:101a94002028ef00b8003700b04080000000e800c4
:101aa400b04088000e80e80010007800e10f50007c
:101ab40003003a00c04080000000e800c0408800f5
:101ac4000e80e80010007800e20f500003003a0096
:101ad400d04080000000e800d0408800b140800081
:101ae400b05d2000808f50009a003400c140800017
:101af400703e2000808f500006003400200020003b
:101b0400a04088001628ef001828ef001a28ef00dc
:101b1400990037001428ef0097003700b040800088
:101b24000000e800b04088000e80e8001000780053
:101b3400e10f500003003a00c04080000000e800bc
:101b4400c04088000e80e80010007800e20f5000ca
:101b540003003a00d04080000000e800d040880034
:101b6400b1408000b05d2000808f50007b003400c5
:101b7400c1408000703e2000808f50000700340078
:101b8400e04080000000e900e04088001628ef00f3
:101b94001828ef001a28ef0015003700d140800004
:101ba400703e2000808f500010003400e14080001f
:101bb400100020000100dd00014180000080700061
:101bc40000418800e04080000000e900e040880017
:101bd400f04080000000e800f04088001628ef0084
:101be4001828ef001a28ef00010037001428ef002e
:101bf400e04080000000e0005a003d00300020007a
:101c0400a04088005c003700b04080000000e8007d
:101c1400b04088000e80e80010007800e10f50000a
:101c240003003a00c04080000000e800c040880083
:101c34000e80e80010007800e20f500003003a0024
:101c4400d04080000000e800d0408800b14080000f
:101c5400b05d2000808f500044003400f0408000cc
:101c640061006000004078000004e0000c003200d5
:101c7400d1408000703e2000808f50000600340068
:101c840040002000a04088001628ef001828ef002c
:101c94001a28ef00380037001428ef003600370008
:101ca400c1408000703e2000808f50000600340048
:101cb40040002000a04088001628ef001828ef00fc
:101cc4001a28ef002c0037001428ef002a003700f0
:101cd400b04080000000e800b04088000e80e800ba
:101ce40010007800e10f500003003a00c04080006b
:101cf4000000e800c04088000e80e8001000780072
:101d0400e20f500003003a00d04080000000e800d9
:101d1400d0408800b1408000b05d2000808f50002a
:101d240014003400d1408000703e2000808f5000a9
:101d34000200340010002000000f78001428ef0087
:101d44000d0037001428ef000b00370000000000de
:101d54000900370000000000070037000000000001
:101d640005003700000000000300370000000000f9
:101d740001003700000000001e0078000000e000b1
:101d8400040032000000eb00000f780000418000e6
:101d9400010037000000eb000080fa00000006009c
:020000040000fa
:101da40036090000a000000002000000020000004c
:101db40000020000000017000000000017000000ef
:101dc400009ef800ffff9a00f8ffff009af8ff005a
:101dd400ff91f800fffff30003000000f30300008d
:101de40000fa03000000fa000300000000080000ed
:101df4000000080000000000f8ffff0000f8ff00ea
:101e0400ff000400000000000400000000040000c3
:101e140000000400000003000000000003000000b4
:101e2400001700000000170000000000e7f8ff00a2
:101e3400ffe1f800ffffe300f8ffff00d5f8ff0023
:101e4400fff003000000f00003000000f9030000ad
:101e540000f9030000000000080000000008000072
:101e64000000f800ffff0000f8ffff00000400007e
:101e74000000040000000000040000000004000052
:101e8400000000002208000014010000000000000f
:101e94000008000014000000000000001408000006
:0c1ea4000e000000000000000000000024
:020000040000fa
:101eb0000200fa00000f78001e0078000000e00029
:101ec000030032001e007800e20f500017003a00b5
:101ed0002143a90030c0b30024e3b7002043a80089
:101ee0003003a8002c03a9001e00780000407800f1
:101ef000674060000080fb00670060004500dd0077
:101f000002198000f1f12f008100610001007000d2
:101f10000019880021e3a8000000000000198000db
:101f2000620060000000e000fcff32000080fa0068
:101f3000000006000000fa002023a9000080fa003b
:101f4000000006000000fa00001980000040780040
:101f5000614060000080fb000080fa000000060085
:101f60000000fa0000198000610060000000e0003d
:101f7000030032002003a900001880000100370090
:101f8000000028000080fa00000006000000fa00af
:101f9000f0032000303a8800213a800000fe2f0034
:101fa000008060000000a000203a8800213a8000f4
:101fb000f0f32f0000806000203a8800120020001b
:101fc00080072000a1092000337420008049780098
:101fd0008149780082497800103a80000001780039
:101fe0000200a0006004200071052000237420007e
:101ff000804978008149780082497800000000001b
:10200000113a80000000270080806000000021005d
:10201000808f5000faff3a0000000000113a800063
:1020200000022000008060000000e000fbff3200a2
:082030000080fa000000060028
:020000040000fa
:10203800f03fb1000180b10006003500ee03090051
:1020480000000000403fb1000180b100fbff3d00ef
:102058001000b000203fb0000200350000800900e9
:0820680000000000000006006a
:020000040000fa
:0200000401f009
:04000000ffffff00ff
:020000040000fa
:0200000401f009
:04000400ffffff00fb
:020000040000fa
:0200000401f009
:04000800ffffff00f7
:020000040000fa
:0200000401f009
:04000c0000000000f0
:020000040000fa
:0200000401f009
:040010006700000085
:020000040000fa
:0200000401f009
:040014005f00000089
:020000040000fa
:0200000401f009
:04001800f7000000ed
:020000040000fa
:0200000401f009
:04001c00dfff000002
:00000001FF
