:020000040000fa
:080000000002040000000000f2
:020000040000fa
:04000800d002000022
:020000040000fa
:04000c00d00200001e
:020000040000fa
:04001000d00200001a
:020000040000fa
:04001400d002000016
:020000040000fa
:04001800d002000012
:020000040000fa
:04001c00d00200000e
:020000040000fa
:04002000d00200000a
:020000040000fa
:04002400d002000006
:020000040000fa
:04002800d002000002
:020000040000fa
:04002c00d0020000fe
:020000040000fa
:04003000d0020000fa
:020000040000fa
:04003400d0020000f6
:020000040000fa
:04003800d0020000f2
:020000040000fa
:04003c00d0020000ee
:020000040000fa
:04004000d0020000ea
:020000040000fa
:04004400d0020000e6
:020000040000fa
:04004800d0020000e2
:020000040000fa
:04004c00d0020000de
:020000040000fa
:04005000d0020000da
:020000040000fa
:04005400d0020000d6
:020000040000fa
:04005800d0020000d2
:020000040000fa
:04005c00d0020000ce
:020000040000fa
:04006000d0020000ca
:020000040000fa
:04006400d0020000c6
:020000040000fa
:04006800d0020000c2
:020000040000fa
:04006c00d0020000be
:020000040000fa
:04007000d0020000ba
:020000040000fa
:04007400d0020000b6
:020000040000fa
:04007800d0020000b2
:020000040000fa
:04007c00d0020000ae
:020000040000fa
:04008000d0020000aa
:020000040000fa
:04008400d0020000a6
:020000040000fa
:04008800d0020000a2
:020000040000fa
:04008c00d00200009e
:020000040000fa
:04009000d00200009a
:020000040000fa
:04009400d002000096
:020000040000fa
:04009800d002000092
:020000040000fa
:04009c00d00200008e
:020000040000fa
:0400a000d00200008a
:020000040000fa
:0400a400d002000086
:020000040000fa
:0400a800d002000082
:020000040000fa
:0400ac00d00200007e
:020000040000fa
:0400b000d00200007a
:020000040000fa
:0400b400d002000076
:020000040000fa
:0400b800d002000072
:020000040000fa
:0400bc00d00200006e
:020000040000fa
:0400c000d00200006a
:020000040000fa
:0400c400d002000066
:020000040000fa
:0400c800d002000062
:020000040000fa
:0400cc00d00200005e
:020000040000fa
:0400d000d00200005a
:020000040000fa
:0400d400d002000056
:020000040000fa
:0400d800d002000052
:020000040000fa
:0400dc00d00200004e
:020000040000fa
:0400e000d00200004a
:020000040000fa
:0400e400d002000046
:020000040000fa
:0400e800d002000042
:020000040000fa
:0400ec00d00200003e
:020000040000fa
:0400f000d00200003a
:020000040000fa
:0400f400d002000036
:020000040000fa
:0400f800d002000032
:020000040000fa
:0400fc00d00200002e
:020000040000fa
:04010000d002000029
:020000040000fa
:04010400d002000025
:020000040000fa
:04010800d002000021
:020000040000fa
:04010c00d00200001d
:020000040000fa
:04011000d002000019
:020000040000fa
:04011400d002000015
:020000040000fa
:04011800d002000011
:020000040000fa
:04011c00d00200000d
:020000040000fa
:04012000d002000009
:020000040000fa
:04012400d002000005
:020000040000fa
:04012800d002000001
:020000040000fa
:04012c00d0020000fd
:020000040000fa
:04013000d0020000f9
:020000040000fa
:04013400d0020000f5
:020000040000fa
:04013800d0020000f1
:020000040000fa
:04013c00d0020000ed
:020000040000fa
:04014000d0020000e9
:020000040000fa
:04014400d0020000e5
:020000040000fa
:04014800d0020000e1
:020000040000fa
:04014c00d0020000dd
:020000040000fa
:04015000d0020000d9
:020000040000fa
:04015400d0020000d5
:020000040000fa
:04015800d0020000d1
:020000040000fa
:04015c00d0020000cd
:020000040000fa
:04016000d0020000c9
:020000040000fa
:04016400d0020000c5
:020000040000fa
:04020800d002000020
:020000040000fa
:04020c00d00200001c
:020000040000fa
:04021000d002000018
:020000040000fa
:04021400d002000014
:020000040000fa
:04021800d002000010
:020000040000fa
:04021c00d00200000c
:020000040000fa
:04022000d002000008
:020000040000fa
:04022400d002000004
:020000040000fa
:04022800d002000000
:020000040000fa
:04022c00d0020000fc
:020000040000fa
:04023000d0020000f8
:020000040000fa
:04023400d0020000f4
:020000040000fa
:04023800d0020000f0
:020000040000fa
:04023c00d0020000ec
:020000040000fa
:04024000d0020000e8
:020000040000fa
:04024400d0020000e4
:020000040000fa
:04024800d0020000e0
:020000040000fa
:04024c00d0020000dc
:020000040000fa
:04025000d0020000d8
:020000040000fa
:04025400d0020000d4
:020000040000fa
:04025800d0020000d0
:020000040000fa
:04025c00d0020000cc
:020000040000fa
:04026000d0020000c8
:020000040000fa
:04026400d0020000c4
:020000040000fa
:04026800d0020000c0
:020000040000fa
:04026c00d0020000bc
:020000040000fa
:04027000d0020000b8
:020000040000fa
:04027400d0020000b4
:020000040000fa
:04027800d0020000b0
:020000040000fa
:04027c00d0020000ac
:020000040000fa
:04028000d0020000a8
:020000040000fa
:04028400d0020000a4
:020000040000fa
:04028800d0020000a0
:020000040000fa
:04028c00d00200009c
:020000040000fa
:04029000d002000098
:020000040000fa
:04029400d002000094
:020000040000fa
:04029800d002000090
:020000040000fa
:04029c00d00200008c
:020000040000fa
:0402a000d002000088
:020000040000fa
:0402a400d002000084
:020000040000fa
:0402a800d002000080
:020000040000fa
:0402ac00d00200007c
:020000040000fa
:0402b000d002000078
:020000040000fa
:0402b400d002000074
:020000040000fa
:0402b800d002000070
:020000040000fa
:0402bc00d00200006c
:020000040000fa
:0402c000d002000068
:020000040000fa
:0402c400d002000064
:020000040000fa
:0402c800d002000060
:020000040000fa
:0402cc00d00200005c
:020000040000fa
:0402d000d002000058
:020000040000fa
:0402d400d002000054
:020000040000fa
:0402d800d002000050
:020000040000fa
:0402dc00d00200004c
:020000040000fa
:0402e000d002000048
:020000040000fa
:0402e400d002000044
:020000040000fa
:0402e800d002000040
:020000040000fa
:0402ec00d00200003c
:020000040000fa
:0402f000d002000038
:020000040000fa
:0402f400d002000034
:020000040000fa
:0402f800d002000030
:020000040000fa
:0402fc00d00200002c
:020000040000fa
:04030000d002000027
:020000040000fa
:04030400d002000023
:020000040000fa
:04030800d00200001f
:020000040000fa
:04030c00d00200001b
:020000040000fa
:04031000d002000017
:020000040000fa
:04031400d002000013
:020000040000fa
:04031800d00200000f
:020000040000fa
:04031c00d00200000b
:020000040000fa
:04032000d002000007
:020000040000fa
:04032400d002000003
:020000040000fa
:04032800d0020000ff
:020000040000fa
:04032c00d0020000fb
:020000040000fa
:04033000d0020000f7
:020000040000fa
:04033400d0020000f3
:020000040000fa
:04033800d0020000ef
:020000040000fa
:04033c00d0020000eb
:020000040000fa
:04034000d0020000e7
:020000040000fa
:04034400d0020000e3
:020000040000fa
:04034800d0020000df
:020000040000fa
:04034c00d0020000db
:020000040000fa
:04035000d0020000d7
:020000040000fa
:04035400d0020000d3
:020000040000fa
:04035800d0020000cf
:020000040000fa
:04035c00d0020000cb
:020000040000fa
:04036000d0020000c7
:020000040000fa
:04036400d0020000c3
:020000040000fa
:10040000afa620000e7f24000e018800000000002f
:10041000000020000000e000020032000001200087
:100420002002880014000700d40007000000e0004c
:1004300003003a006026210001002000020037007e
:100440000000200001002000810f70000100320038
:1004500014000700000020000000e000020032004d
:100460000000020000000000e20a0200000000009c
:100470000040da000000fe004440a900c003200054
:100480000000e0000300320000002000a00188000e
:100490004440a800000006008a1f78008b1f7800e7
:1004a0000000060091018800800478000000eb0045
:1004b0001a003700e284440032a0b4009905ba0063
:1004c000e284440032a0b4009906ba00e2844400f9
:1004d00032a0b4000006eb00476fde00fd07b2005b
:1004e000636ce10003003a00ebff07000000eb0043
:1004f0000a003700606ce10004003a00005deb0088
:100500008b05e900fdff3e00040037006168e10053
:10051000010032000086eb000b00070019c7ba008b
:100520001905ba000e04e00003003a000a00e000da
:10053000e0ff3a0000000600fe07b2009e018800be
:100540008a047800f5ff3700395dba008b05e900b1
:100550000c003200295dba008b05e900080032006a
:100560000c00e00003003a00e284440032a0b40032
:10057000f5ff370019ddba008b05e900faff3a00f4
:100580008904e800e184440032a0b40000000600c1
:100590002409040000000000000004000000000026
:1005a0000040da000000fe000a00fa0011002000fe
:1005b000b1bf9f00c0bf9f006a805700d7030700ec
:1005c0004fb897000080fa00000006000a00fa0009
:1005d000e20f500034003e0030538000e10f500025
:1005e00003003200e20f500011003a000c00370007
:1005f000032220000300e00001003a000040da007e
:100600002002e200020035002822ef0021e2a800cb
:100610002342ab000d003a002342a8000b00370034
:10062000032320000300e00001003a000040da004c
:100630003002e200020035003822ef0031e2a8006b
:100640003342ab0001003a003342a8008201780037
:100650000b0037003102fb00e10f500004003a00ac
:100660002322ab00feff3a0024118800030037006c
:100670003322ab00feff3a00a41188008301e90099
:100680000300e000f3ff3a00e10f500003003a00de
:100690002302ab00feff32000b0037003302ab0039
:1006a000feff32000800370033002000b3bf9f0078
:1006b000c0bf9f00d1bf9f00e2bf9f006a8057006c
:1006c000980307006fb99700020078000080fa00d5
:1006d000000006000a00fa0051002000b1bf9f0090
:1006e000c0bf9f006a805700900307005fb8970063
:1006f0000080fa0000000600889fbe008004780099
:10070000405380000000e00004003a000e000700a3
:100710000084eb000000e000080035004853800032
:100720000900e0000500320009004400060007004f
:100730000000e00001003d000084eb0008007800ac
:100740004f04be0000000600800078000100e000b9
:1007500003003a000000200040538800000005001c
:100760000080eb0002002000828f500002003e005b
:10077000415388000000eb00000006000000050067
:10078000889fbe008a9fbe0030044200b0844a00a9
:1007900030054b0090854b006000b1000898be000a
:1007a0000a90be000440e10005c8e10006d0e10067
:1007b00007d8e10002003100680040001008e8009e
:1007c0004f05be004f04be0000000600889fbe001b
:1007d0008a9fbe003004be002005be0004185400ed
:1007e00005985c0006185d0007985d001100200068
:1007f0000440e10005c8e10006d0e10007d8e100af
:10080000010039008000eb00108810004f05be0089
:100810004f04be00000006001200fa00889fbe00d0
:100820008a9fbe008c9fbe00e0b79f00f1b79f007b
:1008300082bf9f0093bf9f000605be000404be0058
:100840000000eb00d0b79f00c0b79f00b0b79f007b
:10085000a0b79f0090b79f000006eb005fb1970024
:10086000cfb09700820141003fb097000200e00046
:1008700004003d00370007007e805700c0ff0700de
:1008800003003700330007007e805700cfff0700ca
:10089000dfb697000d00e0000c0035006fb2970046
:1008a000ffb297000fbb97009fbb9700100020007e
:1008b000010020006011b800000272008182720005
:1008c00002037300838373001b0007000c06e8001b
:1008d00001042000810f5600e0ff3a000d00e00007
:1008e00004003d000802be000a03be007e805700df
:1008f000a3ff07005fa897000000e00005003a0092
:100900001fb29700afb297003fb39700cfb39700e5
:10091000090007006fb09700ffb097000fb997006c
:100920009fb997004f06be004f05be004f04be00a2
:100930000080fa0000000600010007000000060029
:10094000a4b79f00b5b79f00c6b79f00d7b79f0059
:10095000000006004f09de0082817100b3b79f00de
:100960004f01de008180400082807000a1b79f00af
:100970008fb097004f09de000000400002007000b9
:1009800090b79f007fa897004f01de008180400054
:100990008280700081b79f000d0007004f3ade0093
:1009a0000000400004007000f0af9f000800070046
:1009b0000402420085824a0006034b0087834b00f5
:1009c000dfff07000802be000a03be0000000600a9
:1009d0002fb29700bfb297004fb39700dfb39700d5
:1009e00000000600881f780018002000881f78008b
:1009f00089ff07008f87e9004f0478000000060098
:100a0000801feb0084ff07008f87e90000000600cd
:100a1000889fbe008a9fbe00e00f5000e08f580004
:100a2000e00f5900e08f59000c003d006044b80011
:100a30006055b8000000540081805c0002015d0038
:100a400083815d00180020001500070008003d00ac
:100a5000180007000004eb00050037000004eb005d
:100a60000f00070002003d001200070018002000e0
:100a7000dcff07000800e000060032006022b8003a
:100a80006033b8000000520081805a0002015b0010
:100a900083815b004f05be004f04be0000000600ce
:100aa000e00f5200e08f5a00e00f5b00e08f5b0028
:100ab000000006006044b8006055b800040254000d
:100ac00085825c0006035d0087835d0000000600f0
:100ad000889fbe008a9fbe008c1f7800e00f5000e8
:100ae000e08f5800e00f5900e08f59000d003d00e5
:100af0006044b8006055b8000000540081805c007c
:100b000002015d0083815d001c0020000820e100df
:100b100009a8e1000ab0e1000bb8e1000d003d00ba
:100b2000080037000006eb00e00f5200e08f5a008b
:100b3000e00f5b00e08f5b0006003d006044b80002
:100b40006055b8000402540085825c0006035d0015
:100b500087835d00aaff07000c00e000060032005a
:100b60006022b8006033b8000000520081805a0053
:100b700002015b0083815b004f0678004f05be00d9
:100b80004f04be0000000600889fbe008a9fbe0082
:100b90008c1f78000006eb00e00f5000e08f58003b
:100ba000e00f5900e08f590007003d006044b80095
:100bb0006055b8000000540081805c0002015d00b7
:100bc00083815d001c002000e00f5200e08f5a007e
:100bd000e00f5b00e08f5b0007003d006044b80061
:100be0006055b8000402540085825c0006035d0075
:100bf00087835d000c00a2000c0007000c00e000e1
:100c0000060032006022b8006033b80000005200d5
:100c100081805a0002015b0083815b004f067800ef
:100c20004f05be004f04be0000000600889fbe00b6
:100c30008a9fbe008c9fbe000404b8000506b80061
:100c40008904460060854e000606b8000a05460085
:100c5000e0854e000706b8008b054600040eb8007c
:100c6000890446000a854e00e0854d00050eb80057
:100c70000a0546008b854e00060eb8008b0546001f
:100c80000416b8000a0546008b854e000516b8000c
:100c90008b054600041eb8008b0546000800be0008
:100ca0000a01be004f06be004f05be004f04be0045
:100cb00000000600e19f20006a0007008000780025
:100cc0000080eb000100e00004003500e19f2000ff
:100cd000a0002000020007004f80de000000060098
:100ce000889fbe008a1f78000004be00c9009000e3
:100cf00069009000808f50000500390009007800dd
:100d0000b70007008080eb000000e000160035000f
:100d1000084578004900900008587800c004980001
:100d20001900780000b8a30004003a0000a8a3004e
:100d300007003200ea4f540005003a00090078002d
:100d40000d0007008080eb000000e00006003a0084
:100d500000c020001900600002003200490090002d
:100d6000e00498008a80fb00010078004f057800bd
:100d70004f04be0000000600889fbe008a1f780056
:100d8000000478000800e0000d003a00c8a420002c
:100d9000700544008004eb00580078000000e0007b
:100da00004003200f4ff07000000e00001003d00f5
:100db0008084eb008a0f5400f7ff3a0025003700cb
:100dc00000002200180060008004eb0021003200c7
:100dd000a80490000f00370009015100384090002e
:100de0000000fb0089007800f8fd07000000e0002b
:100df00007003c0028009000400498006004980020
:100e0000500c98001890a0008084eb00110037006f
:100e10008084440048019000828f5400eeff390026
:100e200028009000400498009800780002c020003c
:100e30000281600001003a003800900001e8a30040
:100e4000020032006004980001003700500c980046
:100e50008004eb00090078004f0578004f04be00c5
:100e600000000600889fbe008a9fbe0080047800b4
:100e7000010478002c003700c80090006800900042
:100e8000808f5000040039000800780054000700eb
:100e90000000e0003700350000402000180060002e
:100ea00009003200a100200009007800420007007c
:100eb000800578000b00e00003003200618514001b
:100ec0000a85450004003700090078003400070057
:100ed000000578008005eb0048009000e8009000d5
:100ee000808050008a8f5000020031000105780098
:100ef0008005eb000a0178008900780021000700d6
:100f0000480090000a004000400498000b00e000f8
:100f1000040032000800780097ff07000000e0009e
:100f200014003a008a8444001904e000d2ff3a0019
:100f300000802000180060000600320008007800e1
:100f40008dff0700800078000080eb000100e000ca
:100f500009003a0001c02000988060000000eb000a
:100f60000500320048009000600498000000eb008b
:100f7000010037000080eb004f05be004f04be00ab
:100f8000000006008001780002003700b1597800a7
:100f90000201e9000200e000fcff3a000000060048
:100fa00080007800010178003104e000fdff3a0084
:100fb00000005100000006000001eb000002780074
:100fc000b041780081cf510001003a00040178005f
:100fd0000304e000f9ff3a00020078000000060078
:100fe000889fbe008a1f780000047800c800900027
:100ff000680190000000eb00828f50003c00390037
:10100000180078002200290002016000e20f510060
:1010100007003200012024000000e00001003d0034
:1010200001202000008c70000080eb0030003700b1
:101030000200260002006000820f500009003a0002
:1010400038009000808f50000600390008007800ba
:1010500049ff0700800078000080eb000100e000fd
:1010600023003a001805780000c020000000650049
:1010700018003a00a8049000600220000800400018
:10108000808f540013003a0000202000ef0007007a
:10109000200498000000e00005003a0029049800b0
:1010a000490498008904e8003904980008003700d2
:1010b0000a60a0000a0c780040049800012020007b
:1010c0008080400031049800400c9800500c98003b
:1010d0000c00070028009000500498003800900091
:1010e0006004980000002600180c70000000eb005f
:1010f0004f0578004f04be0000000600409220001b
:1011000061003700881f780028a620001804e0003e
:1011100003003a00f9ff070020c0b300004c78003c
:101120004f04780000000600889fbe00000478008d
:101130000800780010ff07008004780000042000f9
:101140001800600002003200280090005a000700da
:101150000000eb0020049800384090000004e000fc
:10116000050035000000fb000ffd07000000e00057
:10117000010032008084eb00181090000000e000b5
:101180000800320053fd07000000e00001003200bb
:101190008084eb0018109000470007000000eb006f
:1011a000101498000008200018006000150032009c
:1011b0000001eb006000b800e3a420000202d000b0
:1011c00063027a00880f520005003a0000004000d8
:1011d00081804800008041000008eb0006003700d5
:1011e00061004000e08048000201e800e80f500084
:1011f000e08f5800f0ff3a00080078002e0007004a
:101200000e003700000c780000c0eb00304498005e
:10121000600220000800400020049800400498006c
:1012200050049800400c980060049800500c9800fe
:101230007004980076004400000c980009007800c3
:101240004f04be0000000600881f78000004eb0079
:101250006140b800e2ff2f00f3ff2f00b500070048
:10126000c2a52000620078000000e000010032000a
:10127000adff07000804e800e80f5400f4ff3a004f
:101280004f04780000000600010020000100e0008b
:1012900008003200010080000100e000050032007b
:1012a0008100e900010088008100d0000200800078
:1012b00000b17800000006000000e0002f003200be
:1012c000c0017800e38f51002c0036000308a30012
:1012d0002a003a00015380000100e00002003200c1
:1012e000810f500004003100110098000053880065
:1012f0001600370082007800110190000200e00023
:1013000002003200800f5100faff3900110278000c
:1013100084824000850f500018003900808f5200f1
:1013200003003a00830842000100780007003700fc
:101330000200e0000300320083014000830f5100ef
:101340000e00390012009800900098009000900064
:101350000100e0000900320010014000828f5000bf
:1013600006003a00e2a520000009eb001001780019
:101370001108410091009000110098000000060043
:10138000889fbe0000047800f15280000100e00058
:1013900002003200010078000d0037000153800088
:1013a00000a6200004003700910f540025003600ed
:1013b0000180e800910090000100e000faff3a008f
:1013c00010003700920f54001e0036000280e80023
:1013d000100178000200e000faff3a0011017800e5
:1013e0000153800000a6200004003700910f540034
:1013f000140036000180e80091009000828f5000b8
:10140000faff3a0029538000888f54000100310010
:101410008804780009007800360007000000e0002a
:1014200004003a00888f5400050032008904d1007e
:10143000f5ff3700091878009fff0700d2ff37003b
:101440000000eb004f04be0000000600881f78007b
:10145000630440000800a1008000eb00800f5400ee
:1014600021003600e30f540001003e004800200038
:1014700008007800c2ff07008000eb000000e000d9
:1014800019003200900078009101780064815100c9
:10149000880f51000300310011019000020878000c
:1014a0000700370008814000020878009101900091
:1014b00013019800100178001109140088087800c1
:1014c000100178000000eb000200e0000400320090
:1014d000920190000300e000010032000280e80069
:1014e000f05288008180e800010078004f04780005
:1014f00000000600800078000000eb000100e00022
:1015000005003400010078007bfc0700e10f40007b
:1015100001003a000000eb000000060000c0da0005
:101520000000060000c0da000000060000c0da007b
:1015300000000600020ab900001bb9000200b80052
:0c15400081004200810043000000060012
:020000040000fa
:10154c0053740000617200007420000042690000b6
:10155c007420000065720000726f000072000000c1
:10156c0044610000746100002042000069740000b6
:10157c0020650000727200006f72000000500000c5
:10158c00617200006974000079200000657200002f
:10159c00726f000072000000537400006f70000046
:1015ac002042000069740000206500007272000087
:0815bc006f7200000000000046
:020000040000fa
:1015c4000a00fa00007d2000000f78007a0407006a
:1015d400c9a2a9000a21ef0013e1a80020002000fd
:1015e4003e040700a0a62000700888002135800072
:1015f40000fe2f00008060007000b30020358800da
:101604003136800000fe2f00008060003000b300ff
:10161400303688000111800090ff2f0000806000a8
:10162400001188002002a9002062a900a002200065
:101634004011880021e2a8002342a8000000000015
:101644004b0407000000e000fdff32004f040700d8
:1016540010079800018020001e009000330007004e
:1016640011408000004080004280200040020700ba
:101674003140800020408000970207002007980036
:101684002e0090000000e00026003200cda2a80049
:101694001e007800cf80de006109b90084a8230011
:1016a400850320006033b80036fd0700843e200027
:1016b400050020006033b800c9fc07000000be002c
:1016c400680407002e0090004800de0030079800f0
:1016d400ae009000f00f20000080600040079800ea
:1016e4000000000011118000002020000080600034
:1016f4000000e000fbff3a003e009000201188004b
:101704000000000011118000002020000080600013
:101714000000e000fbff3a004e009000201188001a
:10172400cda2a90000000000c5ff37001800fa0090
:10173400889fbe008a9fbe008c9fbe001007980041
:10174400210798001e0090008000eb0030438800c1
:10175400414388001e0090008000eb009046880002
:10176400a14688000000eb00000f7800ea00370073
:101774009e00e800310798001e0078006c00b90054
:1017840000007800e8004000e08520000080400070
:101794001000be004a0cdd00c604de00890474009b
:1017a4004a04dd009e0078004f08de00010040007e
:1017b4000080d100c200dd0060962000008040005f
:1017c4001002be001e0078006c00b9000000780012
:1017d400e4004000e0852000008040001001be00cd
:1017e40002a8b900000378000498b900000078004a
:1017f400000343000220b800010343008600780080
:1018040008044000898448009e0078004f08de00e8
:10181400010040000080d100c200dd00609720007c
:10182400008040001002be001e0078006c00b90069
:1018340080007800e0852000008040001001be0098
:1018440002a8b900000378000498b90000007800e9
:10185400000343000220b80001034300860078001f
:1018640008044000898448009e0078004f08de0088
:10187400010040000080d100c200dd00609420001f
:10188400008040001003be001e00e8006c00b90098
:1018940000007800e4004000e08520000080400063
:1018a4001000be00e00f5000e08f580002003d0021
:1018b400f03fb0000180b0004609dd004a05de00bb
:1018c4000a057100ca8dde000a01be0002b8b90023
:1018d400000278000698b900000078000002420077
:1018e4000230b80001024200840078000004540071
:1018f40081845c009e0078004f08de0001004000f7
:101904000080d100c200dd0060952000008040000e
:101914001003be001e00e8006c00b90080007800cf
:10192400e0852000008040001000be00e00f500061
:10193400e08f580002003d00f03fb0000180b0008d
:10194400c609dd004a06de000c867100ca8ede0080
:101954000c01be0002b8b900000278000698b90074
:1019640000007800000242000230b8000102420088
:10197400840078000001540081815c003e029000e4
:101984006c20b90080007800608620000080400050
:101994000288be009e82e8001e007800cf00de00b0
:1019a400008040000080d100c200dd006093200070
:1019b400008040001003be001e00e8006c00b90067
:1019c40000007800e8004000e0852000008040002e
:1019d4001001be0002b8b900000278000698b900f0
:1019e40000007800000242000230b8000102420008
:1019f400840078000001be00e00f5100e08f590020
:101a040004003d00f0ff2f00f1002000020140001f
:101a140083814800c498de00410798004f9ade0095
:101a2400540798004e019000de0190006c28b90024
:101a34008000780060862000008040000288be009c
:101a44001e0078006c00b90000007800e40040003b
:101a5400e0852000008040001001be001e007800d8
:101a64006c00b90080007800e08520000080400010
:101a74000288be001e0078006c00b90000007800e7
:101a8400e8004000e0852000008040001001be0016
:101a94001e0078006c00b9008000780020862000c9
:101aa400008040000288be001e02e8001e00e8001c
:101ab4006c00b90000007800e4004000e0852000dc
:101ac400008040001001be006c20b9008000780046
:101ad400e0852000008040000288be001e02e8006d
:101ae4001e00e8006c00b90000007800e800400027
:101af400e0852000008040001001be006c20b90089
:101b04008000780020862000008040000288be000b
:101b14001e0fe8001e0fe8001e007800e70f5000bb
:101b240013ff34001046800021468000f0458800f1
:101b340001468800304680004146800010468800f7
:101b4400214688000000eb00000f7800ed0037000c
:101b54001e05e8001e0078006c00b9000000780043
:101b6400e8004000a08c2000008040001000be006f
:101b74004a0cdd00c604de00890474004a04dd005a
:101b84001e007800cf00de00008040000080d100fd
:101b9400c200dd00609b2000008040001002be00f7
:101ba4001e0078006c00b90000007800e4004000da
:101bb400a08c2000008040001000be0000a9b900e5
:101bc40002017800048bb90086017800030141000a
:101bd4000020b800010141008200780008044000a0
:101be400898448001e007800cf00de000080400099
:101bf4000080d100c200dd00609c20000080400015
:101c04001002be001e0078006c00b900800078004d
:101c1400a08c2000008040001000be0000a9b90084
:101c240002017800048bb9008601780003014100a9
:101c34000020b8000101410082007800080440003f
:101c4400898448001e007800cf00de000080400038
:101c54000080d100c200dd006099200000804000b7
:101c64001002be001e00e8006c00b90000007800fd
:101c7400e4004000a08c2000008040001000be0062
:101c8400e00f5000e08f580002003d00f03fb0002c
:101c94000180b000c609dd004a01de000281710046
:101ca400620798004a89de00720798006e0090006f
:101cb400fe00900000a9b90002017800048bb9006d
:101cc40086017800030141000020b80001014100b1
:101cd400820078000004540081845c001e007800b7
:101ce400cf00de00008040000080d100c200dd0093
:101cf400609a2000008040001002be001e00e80030
:101d04006c00b90080007800a08c200000804000a6
:101d14001000be00e00f5000e08f580002003d00ac
:101d2400f03fb0000180b0004609dd00ca01de00ca
:101d340083017100030f9800ca89de00130f980015
:101d44000e0890009e08900000a9b90002017800d6
:101d5400048bb90086017800030141000020b8001b
:101d640001014100820078000000540081805c0081
:101d74006c51b90082017800228d2000028141005b
:101d84000089be001e84e8001e007800cf00de003b
:101d9400008040000080d100c200dd006098200077
:101da400008040001001be001e00e8006c00b90075
:101db40000007800e8004000a08c20000080400073
:101dc4001000be00009ab90004027800028bb9002a
:101dd40086027800050242000010b80001024200a9
:101de40084007800e00f5000e08f580004003d00ac
:101df400f2ff2f00f3002000000041008180490021
:101e0400448ade00240f98004f89de00320f9800c8
:101e14002e089000be0890006c41b9008201780041
:101e2400228d2000028141000089be001e0078003e
:101e34006c00b90000007800e4004000a08c200091
:101e4400008040001000be001e0178006c11b90033
:101e540082017800a28c2000028141000089be002a
:101e64001e0078006c00b90000007800e800400013
:101e7400a08c2000008040001000be001e017800ed
:101e84006c11b90082017800e28c200002814100cb
:101e94000089be001e01e8001e00e8006c00b900c5
:101ea40000007800e4004000a08c20000080400086
:101eb4001000be006c11b90082017800a28c2000d1
:101ec400028141000089be001e01e8001e00e800f6
:101ed4006c00b90000007800e8004000a08c2000ed
:101ee400008040001000be006c11b900820178002f
:101ef400e28c2000028141000089be001e0fe80030
:101f04001e0fe8001e007800e70f500010ff340099
:101f140070498000814980005049880061498800e7
:101f240090498000a1498000704988008149880057
:101f34003046800041468000800078002e009000ea
:101f4400010878002e0090000081e800904980008c
:101f5400a149800000007800000978004f06be0007
:101f64004f05be004f04be000080fa0000000600ca
:101f74000a00fa00200798003107980042079800e9
:101f8400a00f2000000f7800a00f20001007980079
:101f940040408000800040002082200000804000fb
:101fa400ae0090000108780050408000800040009e
:101fb4000084200000804000be00900001087800ea
:101fc40040408000800040002082200000804000cb
:101fd4009000780060408000808f5000060034003c
:101fe40040408000800040002082200000804000ab
:101ff4001000780060408800404080000000e80045
:102004004040880040408000ef0f50000a00340038
:102014000828ef00604080009e0f50000400340048
:1020240010002000704088000c28ef0002003700e8
:102034000e28ef000c28ef00504080008000400084
:1020440000842000008040009000780080408000e0
:10205400808f500006003400504080008000400013
:102064000084200000804000100078008040880038
:10207400504080000000e80050408800504080003c
:10208400ef0f50000b0034000a28ef00814080005d
:102094001e009000808f50000400340010002000c7
:1020a400904088001028ef00020037001228ef004b
:1020b4001028ef00714080004e0090000108780065
:1020c4004e0090000080e8009140800001087800f4
:1020d4000080fa00000006000800fa0020079800bb
:1020e400310798000000eb00000f78003e009000dc
:1020f4000000e00009003a002e0090000000e0001b
:1021040003003a000000eb00100798000b003700b2
:102114001000200010079800080037002e009000df
:102124000000e00003003a0020002000100798009f
:10213400020037003000200010079800a040800003
:10214400e20f50003c003200e20f500005003e0058
:102154000000e00008003200e10f500015003200da
:10216400c2003700e30f50006e003200e40f50004d
:10217400a0003200bd0037001e009000e10f5000a7
:10218400bc003a0010002000a0408800100020008d
:10219400b040880010002000c04088001a28ef00da
:1021a40090002000e04088001e28ef002028ef0067
:1021b400bb003700b04080000000e800b040880059
:1021c4001e009000e10f500003003a00c040800060
:1021d4000000e800c04088001e009000e20f50009c
:1021e40003003a00d04080000000e800d04088009e
:1021f400b1408000b05d2000808f50009f0034000b
:10220400c1408000703e2000808f500006003400e2
:1022140020002000a04088001628ef001828ef00b6
:102224001a28ef009e0037001428ef0060aa280047
:102234009ffa07009a003700b04080000000e800d1
:10224400b04088001e009000e10f500003003a00e7
:10225400c04080000000e800c04088001e009000dc
:10226400e20f500003003a00d04080000000e80074
:10227400d0408800b1408000b05d2000808f5000c5
:1022840080003400c1408000703e2000808f5000e8
:1022940007003400e04080000000e900e0408800ce
:1022a4001628ef001828ef001a28ef00170037004f
:1022b400d1408000703e2000808f50001000340018
:1022c400e0408000110020008008dd000041800013
:1022d4000100700000418800e04080000000e90037
:1022e400e0408800f04080000000e800f0408800f2
:1022f4001628ef001828ef001a28ef000300370013
:102304001428ef0060ab280069fa0700e040800061
:102314000000e0005d003d0030002000a040880087
:102324005f003700b04080000000e800b040880043
:102334001e009000e10f500003003a00c0408000ee
:102344000000e800c04088001e009000e20f50002a
:1023540003003a00d04080000000e800d04088002c
:10236400b1408000b05d2000808f500049003400ef
:10237400f040800061006000004078000004e0004c
:102384000e003200d1408000703e2000808f50004b
:102394000600340040002000a04088001628ef000a
:1023a4001828ef001a28ef003d0037001428ef002a
:1023b40050ac28003efa070039003700c1408000c5
:1023c400703e2000808f5000060034004000200042
:1023d400a04088001628ef001828ef001a28ef0004
:1023e4002f0037001428ef0050ac280030fa070003
:1023f4002b003700b04080000000e800b0408800a7
:102404001e009000e10f500003003a00c04080001d
:102414000000e800c04088001e009000e20f500059
:1024240003003a00d04080000000e800d04088005b
:10243400b1408000b05d2000808f50001700340050
:10244400d1408000703e2000808f50000300340093
:1024540010002000000f78000200370020ad280093
:1024640013fa07001428ef000d0037001428ef00ba
:102474000b003700000000000900370000000000d6
:1024840007003700000000000500370000000000ce
:1024940003003700000000000100370000000000c6
:1024a4001e0078000000e000040032000000eb0091
:1024b400000f780000418000010037000000eb00ad
:0824c4000080fa000000060090
:020000040000fa
:1024cc0036090000a000000002000000020000001d
:1024dc0000020000000017000000000017000000c0
:1024ec00009ef800ffff9a00f8ffff009af8ff002b
:1024fc00ff91f800fffff30003000000f30300005e
:10250c0000fa03000000fa000300000000080000bd
:10251c000000080000000000f8ffff0000f8ff00ba
:10252c00ff00040000000000040000000004000094
:10253c000000040000000300000000000300000085
:10254c00001700000000170000000000e7f8ff0073
:10255c00ffe1f800ffffe300f8ffff00d5f8ff00f4
:10256c00fff003000000f00003000000f90300007e
:10257c0000f9030000000000080000000008000043
:10258c000000f800ffff0000f8ffff00000400004f
:10259c000000040000000000040000000004000023
:1025ac0000000000220800001401000000000000e0
:1025bc0000080000140000000000000014080000d7
:1025cc000e00000000000000d6090000880000008a
:1025dc00020000000100000000fc0900fd09fc00e5
:1025ec0009fc0900fc09fc0009ec090000000000d2
:1025fc0000000000000000000000000000000000cf
:10260c00000000000000000000020800010124008e
:10261c000a250a00240a24000a240a00240a1400a9
:10262c000a00000000000000000000000000000094
:10263c00000000000000000000000000000002008c
:10264c00080202004c0a4d000a4c0a004c0a4c00cd
:10265c000a4c0a003c0a00000000000000000000c8
:10266c00000000000000000000000000000000005e
:10267c0000000000d609fe0009260a000000000038
:10268c00000000000000000000000000620a0000d2
:10269c000200000000000000640a000002000000bc
:1026ac0002000000040000005e0a000004000000ac
:1026bc0000000000660a000002000000020000009a
:1026cc0001000000680a0000020000000000000089
:0426dc0000000000fa
:020000040000fa
:1026e0000200fa00000f78001e0078000000e000f1
:1026f000030032001e007800e20f500017003a007d
:102700002143a90030c0b30024e3b7002043a80050
:102710003003a8002c03a9001e00780000407800b8
:10272000674060000080fb00670060004500dd003e
:1027300002198000f1f12f0081006100010070009a
:102740000019880021e3a8000000000000198000a3
:10275000620060000000e000fcff32000080fa0030
:10276000000006000000fa002023a9000080fa0003
:10277000000006000000fa00001980000040780008
:10278000614060000080fb000080fa00000006004d
:102790000000fa0000198000610060000000e00005
:1027a000030032002003a900001880000100370058
:1027b000000028000080fa00000006000000fa0077
:1027c000f0032000303a8800213a800000fe2f00fc
:1027d000008060000000a000203a8800213a8000bc
:1027e000f0f32f0000806000203a880012002000e3
:1027f00080072000a1092000337420008049780060
:102800008149780082497800103a80000001780000
:102810000200a00060042000710520002374200045
:1028200080497800814978008249780000000000e2
:10283000113a800000002700808060000000210025
:10284000808f5000faff3a0000000000113a80002b
:1028500000022000008060000000e000fbff32006a
:082860000080fa0000000600f0
:020000040000fa
:10286800f03fb1000180b10006003500ee03090019
:1028780000000000403fb1000180b100fbff3d00b7
:102888001000b000203fb0000200350000800900b1
:08289800000000000000060032
:020000040000fa
:0200000401f009
:04000000ffff0000fe
:020000040000fa
:0200000401f009
:04000400ffff0000fa
:020000040000fa
:0200000401f009
:04000800ffff0000f6
:020000040000fa
:0200000401f009
:04000c0000000000f0
:020000040000fa
:0200000401f009
:040010006700000085
:020000040000fa
:0200000401f009
:040014005f00000089
:020000040000fa
:0200000401f009
:04001800f7000000ed
:020000040000fa
:0200000401f009
:04001c00dfff000002
:00000001FF
